{
  "address": "0x840683ea904b1F20Adc050111a5C931b60673dFF",
  "abi": [
    {
      "anonymous": false,
      "inputs": [
        {
          "indexed": true,
          "internalType": "address",
          "name": "account",
          "type": "address"
        },
        {
          "indexed": true,
          "internalType": "address",
          "name": "operator",
          "type": "address"
        },
        {
          "indexed": false,
          "internalType": "bool",
          "name": "approved",
          "type": "bool"
        }
      ],
      "name": "ApprovalForAll",
      "type": "event"
    },
    {
      "anonymous": false,
      "inputs": [
        {
          "indexed": true,
          "internalType": "uint256",
          "name": "tokenId",
          "type": "uint256"
        },
        {
          "indexed": true,
          "internalType": "address",
          "name": "owner",
          "type": "address"
        },
        {
          "indexed": false,
          "internalType": "string",
          "name": "configurationURI",
          "type": "string"
        }
      ],
      "name": "ConfigurationURI",
      "type": "event"
    },
    {
      "anonymous": false,
      "inputs": [
        {
          "indexed": true,
          "internalType": "address",
          "name": "operator",
          "type": "address"
        }
      ],
      "name": "OperatorAdded",
      "type": "event"
    },
    {
      "anonymous": false,
      "inputs": [
        {
          "indexed": true,
          "internalType": "address",
          "name": "previousOwner",
          "type": "address"
        },
        {
          "indexed": true,
          "internalType": "address",
          "name": "newOwner",
          "type": "address"
        }
      ],
      "name": "OwnershipTransferred",
      "type": "event"
    },
    {
      "anonymous": false,
      "inputs": [
        {
          "indexed": false,
          "internalType": "address",
          "name": "account",
          "type": "address"
        }
      ],
      "name": "Paused",
      "type": "event"
    },
    {
      "anonymous": false,
      "inputs": [
        {
          "indexed": true,
          "internalType": "uint256",
          "name": "id",
          "type": "uint256"
        },
        {
          "indexed": true,
          "internalType": "address",
          "name": "recipient",
          "type": "address"
        },
        {
          "indexed": false,
          "internalType": "uint256",
          "name": "value",
          "type": "uint256"
        }
      ],
      "name": "RoyaltiesDefined",
      "type": "event"
    },
    {
      "anonymous": false,
      "inputs": [
        {
          "indexed": true,
          "internalType": "address",
          "name": "operator",
          "type": "address"
        },
        {
          "indexed": true,
          "internalType": "address",
          "name": "from",
          "type": "address"
        },
        {
          "indexed": true,
          "internalType": "address",
          "name": "to",
          "type": "address"
        },
        {
          "indexed": false,
          "internalType": "uint256[]",
          "name": "ids",
          "type": "uint256[]"
        },
        {
          "indexed": false,
          "internalType": "uint256[]",
          "name": "values",
          "type": "uint256[]"
        }
      ],
      "name": "TransferBatch",
      "type": "event"
    },
    {
      "anonymous": false,
      "inputs": [
        {
          "indexed": true,
          "internalType": "address",
          "name": "operator",
          "type": "address"
        },
        {
          "indexed": true,
          "internalType": "address",
          "name": "from",
          "type": "address"
        },
        {
          "indexed": true,
          "internalType": "address",
          "name": "to",
          "type": "address"
        },
        {
          "indexed": false,
          "internalType": "uint256",
          "name": "id",
          "type": "uint256"
        },
        {
          "indexed": false,
          "internalType": "uint256",
          "name": "value",
          "type": "uint256"
        }
      ],
      "name": "TransferSingle",
      "type": "event"
    },
    {
      "anonymous": false,
      "inputs": [
        {
          "indexed": false,
          "internalType": "string",
          "name": "value",
          "type": "string"
        },
        {
          "indexed": true,
          "internalType": "uint256",
          "name": "id",
          "type": "uint256"
        }
      ],
      "name": "URI",
      "type": "event"
    },
    {
      "anonymous": false,
      "inputs": [
        {
          "indexed": false,
          "internalType": "address",
          "name": "account",
          "type": "address"
        }
      ],
      "name": "Unpaused",
      "type": "event"
    },
    {
      "inputs": [
        {
          "internalType": "address[]",
          "name": "operators",
          "type": "address[]"
        }
      ],
      "name": "addOperators",
      "outputs": [],
      "stateMutability": "nonpayable",
      "type": "function"
    },
    {
      "inputs": [
        {
          "internalType": "address",
          "name": "account",
          "type": "address"
        },
        {
          "internalType": "uint256",
          "name": "id",
          "type": "uint256"
        }
      ],
      "name": "balanceOf",
      "outputs": [
        {
          "internalType": "uint256",
          "name": "",
          "type": "uint256"
        }
      ],
      "stateMutability": "view",
      "type": "function"
    },
    {
      "inputs": [
        {
          "internalType": "address[]",
          "name": "accounts",
          "type": "address[]"
        },
        {
          "internalType": "uint256[]",
          "name": "ids",
          "type": "uint256[]"
        }
      ],
      "name": "balanceOfBatch",
      "outputs": [
        {
          "internalType": "uint256[]",
          "name": "",
          "type": "uint256[]"
        }
      ],
      "stateMutability": "view",
      "type": "function"
    },
    {
      "inputs": [
        {
          "internalType": "address",
          "name": "owner",
          "type": "address"
        },
        {
          "internalType": "uint256",
          "name": "id",
          "type": "uint256"
        },
        {
          "internalType": "uint256",
          "name": "amount",
          "type": "uint256"
        }
      ],
      "name": "burn",
      "outputs": [],
      "stateMutability": "nonpayable",
      "type": "function"
    },
    {
      "inputs": [
        {
          "internalType": "address",
          "name": "owner",
          "type": "address"
        },
        {
          "internalType": "uint256[]",
          "name": "ids",
          "type": "uint256[]"
        },
        {
          "internalType": "uint256[]",
          "name": "amounts",
          "type": "uint256[]"
        }
      ],
      "name": "burnBatch",
      "outputs": [],
      "stateMutability": "nonpayable",
      "type": "function"
    },
    {
      "inputs": [],
      "name": "contractURI",
      "outputs": [
        {
          "internalType": "string",
          "name": "",
          "type": "string"
        }
      ],
      "stateMutability": "view",
      "type": "function"
    },
    {
      "inputs": [
        {
          "internalType": "uint256",
          "name": "id",
          "type": "uint256"
        }
      ],
      "name": "creator",
      "outputs": [
        {
          "internalType": "address",
          "name": "",
          "type": "address"
        }
      ],
      "stateMutability": "view",
      "type": "function"
    },
    {
      "inputs": [],
      "name": "currentId",
      "outputs": [
        {
          "internalType": "uint256",
          "name": "",
          "type": "uint256"
        }
      ],
      "stateMutability": "view",
      "type": "function"
    },
    {
      "inputs": [
        {
          "internalType": "string",
          "name": "uri",
          "type": "string"
        },
        {
          "internalType": "address",
          "name": "minter",
          "type": "address"
        },
        {
          "internalType": "string",
          "name": "contractURI_",
          "type": "string"
        },
        {
          "internalType": "address",
          "name": "proxyRegistryAddress_",
          "type": "address"
        }
      ],
      "name": "initialize",
      "outputs": [],
      "stateMutability": "nonpayable",
      "type": "function"
    },
    {
      "inputs": [
        {
          "internalType": "uint256",
          "name": "tokenId",
          "type": "uint256"
        },
        {
          "internalType": "address",
          "name": "owner",
          "type": "address"
        }
      ],
      "name": "interactiveConfURI",
      "outputs": [
        {
          "internalType": "string",
          "name": "",
          "type": "string"
        }
      ],
      "stateMutability": "view",
      "type": "function"
    },
    {
      "inputs": [
        {
          "internalType": "address",
          "name": "_owner",
          "type": "address"
        },
        {
          "internalType": "address",
          "name": "_operator",
          "type": "address"
        }
      ],
      "name": "isApprovedForAll",
      "outputs": [
        {
          "internalType": "bool",
          "name": "isOperator",
          "type": "bool"
        }
      ],
      "stateMutability": "view",
      "type": "function"
    },
    {
      "inputs": [
        {
          "internalType": "address",
          "name": "address_",
          "type": "address"
        }
      ],
      "name": "isOperator",
      "outputs": [
        {
          "internalType": "bool",
          "name": "",
          "type": "bool"
        }
      ],
      "stateMutability": "view",
      "type": "function"
    },
    {
      "inputs": [
        {
          "internalType": "uint256",
          "name": "supply",
          "type": "uint256"
        },
        {
          "internalType": "uint256",
          "name": "royalties",
          "type": "uint256"
        },
        {
          "internalType": "address",
          "name": "royaltiesRecipient",
          "type": "address"
        },
        {
          "internalType": "bytes",
          "name": "data",
          "type": "bytes"
        },
        {
          "internalType": "uint8",
          "name": "v",
          "type": "uint8"
        },
        {
          "internalType": "bytes32",
          "name": "r",
          "type": "bytes32"
        },
        {
          "internalType": "bytes32",
          "name": "s",
          "type": "bytes32"
        }
      ],
      "name": "mint",
      "outputs": [],
      "stateMutability": "nonpayable",
      "type": "function"
    },
    {
      "inputs": [
        {
          "internalType": "uint256",
          "name": "id",
          "type": "uint256"
        }
      ],
      "name": "minted",
      "outputs": [
        {
          "internalType": "bool",
          "name": "",
          "type": "bool"
        }
      ],
      "stateMutability": "view",
      "type": "function"
    },
    {
      "inputs": [],
      "name": "owner",
      "outputs": [
        {
          "internalType": "address",
          "name": "",
          "type": "address"
        }
      ],
      "stateMutability": "view",
      "type": "function"
    },
    {
      "inputs": [],
      "name": "pause",
      "outputs": [],
      "stateMutability": "nonpayable",
      "type": "function"
    },
    {
      "inputs": [],
      "name": "paused",
      "outputs": [
        {
          "internalType": "bool",
          "name": "",
          "type": "bool"
        }
      ],
      "stateMutability": "view",
      "type": "function"
    },
    {
      "inputs": [
        {
          "internalType": "address",
          "name": "sender",
          "type": "address"
        },
        {
          "internalType": "bytes",
          "name": "data",
          "type": "bytes"
        }
      ],
      "name": "prepareMessage",
      "outputs": [
        {
          "internalType": "bytes32",
          "name": "",
          "type": "bytes32"
        }
      ],
      "stateMutability": "pure",
      "type": "function"
    },
    {
      "inputs": [],
      "name": "proxyRegistryAddress",
      "outputs": [
        {
          "internalType": "address",
          "name": "",
          "type": "address"
        }
      ],
      "stateMutability": "view",
      "type": "function"
    },
    {
      "inputs": [
        {
          "internalType": "bytes32",
          "name": "message",
          "type": "bytes32"
        },
        {
          "internalType": "uint8",
          "name": "v",
          "type": "uint8"
        },
        {
          "internalType": "bytes32",
          "name": "r",
          "type": "bytes32"
        },
        {
          "internalType": "bytes32",
          "name": "s",
          "type": "bytes32"
        }
      ],
      "name": "recoverSigner",
      "outputs": [
        {
          "internalType": "address",
          "name": "",
          "type": "address"
        }
      ],
      "stateMutability": "pure",
      "type": "function"
    },
    {
      "inputs": [
        {
          "internalType": "address[]",
          "name": "operators",
          "type": "address[]"
        }
      ],
      "name": "removeOperators",
      "outputs": [],
      "stateMutability": "nonpayable",
      "type": "function"
    },
    {
      "inputs": [],
      "name": "renounceOwnership",
      "outputs": [],
      "stateMutability": "nonpayable",
      "type": "function"
    },
    {
      "inputs": [
        {
          "internalType": "bytes32",
          "name": "message",
          "type": "bytes32"
        },
        {
          "internalType": "uint8",
          "name": "v",
          "type": "uint8"
        },
        {
          "internalType": "bytes32",
          "name": "r",
          "type": "bytes32"
        },
        {
          "internalType": "bytes32",
          "name": "s",
          "type": "bytes32"
        }
      ],
      "name": "requireOperatorSignature",
      "outputs": [],
      "stateMutability": "view",
      "type": "function"
    },
    {
      "inputs": [
        {
          "internalType": "uint256",
          "name": "tokenId",
          "type": "uint256"
        },
        {
          "internalType": "uint256",
          "name": "value",
          "type": "uint256"
        },
        {
          "internalType": "bytes",
          "name": "",
          "type": "bytes"
        }
      ],
      "name": "royaltyInfo",
      "outputs": [
        {
          "internalType": "address",
          "name": "receiver",
          "type": "address"
        },
        {
          "internalType": "uint256",
          "name": "royaltyAmount",
          "type": "uint256"
        },
        {
          "internalType": "bytes",
          "name": "royaltyPaymentData",
          "type": "bytes"
        }
      ],
      "stateMutability": "view",
      "type": "function"
    },
    {
      "inputs": [
        {
          "internalType": "address",
          "name": "from",
          "type": "address"
        },
        {
          "internalType": "address",
          "name": "to",
          "type": "address"
        },
        {
          "internalType": "uint256[]",
          "name": "ids",
          "type": "uint256[]"
        },
        {
          "internalType": "uint256[]",
          "name": "amounts",
          "type": "uint256[]"
        },
        {
          "internalType": "bytes",
          "name": "data",
          "type": "bytes"
        }
      ],
      "name": "safeBatchTransferFrom",
      "outputs": [],
      "stateMutability": "nonpayable",
      "type": "function"
    },
    {
      "inputs": [
        {
          "internalType": "address",
          "name": "from",
          "type": "address"
        },
        {
          "internalType": "address[]",
          "name": "recipients",
          "type": "address[]"
        },
        {
          "internalType": "uint256",
          "name": "id",
          "type": "uint256"
        },
        {
          "internalType": "uint256[]",
          "name": "amounts",
          "type": "uint256[]"
        },
        {
          "internalType": "bytes",
          "name": "data",
          "type": "bytes"
        }
      ],
      "name": "safeBatchTransferIdFrom",
      "outputs": [],
      "stateMutability": "nonpayable",
      "type": "function"
    },
    {
      "inputs": [
        {
          "internalType": "address[]",
          "name": "artists",
          "type": "address[]"
        },
        {
          "internalType": "uint256[]",
          "name": "ids",
          "type": "uint256[]"
        },
        {
          "internalType": "uint256[]",
          "name": "amounts",
          "type": "uint256[]"
        },
        {
          "internalType": "address",
          "name": "recipient",
          "type": "address"
        },
        {
          "internalType": "bytes",
          "name": "data",
          "type": "bytes"
        }
      ],
      "name": "safeMintBatchForArtistsAndTransfer",
      "outputs": [],
      "stateMutability": "nonpayable",
      "type": "function"
    },
    {
      "inputs": [
        {
          "internalType": "address",
          "name": "from",
          "type": "address"
        },
        {
          "internalType": "address",
          "name": "to",
          "type": "address"
        },
        {
          "internalType": "uint256",
          "name": "id",
          "type": "uint256"
        },
        {
          "internalType": "uint256",
          "name": "amount",
          "type": "uint256"
        },
        {
          "internalType": "bytes",
          "name": "data",
          "type": "bytes"
        }
      ],
      "name": "safeTransferFrom",
      "outputs": [],
      "stateMutability": "nonpayable",
      "type": "function"
    },
    {
      "inputs": [
        {
          "internalType": "address",
          "name": "operator",
          "type": "address"
        },
        {
          "internalType": "bool",
          "name": "approved",
          "type": "bool"
        }
      ],
      "name": "setApprovalForAll",
      "outputs": [],
      "stateMutability": "nonpayable",
      "type": "function"
    },
    {
      "inputs": [
        {
          "internalType": "string",
          "name": "newuri",
          "type": "string"
        }
      ],
      "name": "setBaseURI",
      "outputs": [],
      "stateMutability": "nonpayable",
      "type": "function"
    },
    {
      "inputs": [
        {
          "internalType": "string",
          "name": "contractURI_",
          "type": "string"
        }
      ],
      "name": "setContractURI",
      "outputs": [],
      "stateMutability": "nonpayable",
      "type": "function"
    },
    {
      "inputs": [
        {
          "internalType": "uint256",
          "name": "tokenId",
          "type": "uint256"
        },
        {
          "internalType": "address",
          "name": "owner",
          "type": "address"
        },
        {
          "internalType": "string",
          "name": "interactiveConfURI",
          "type": "string"
        }
      ],
      "name": "setInteractiveConfURI",
      "outputs": [],
      "stateMutability": "nonpayable",
      "type": "function"
    },
    {
      "inputs": [
        {
          "internalType": "bytes4",
          "name": "interfaceId",
          "type": "bytes4"
        }
      ],
      "name": "supportsInterface",
      "outputs": [
        {
          "internalType": "bool",
          "name": "",
          "type": "bool"
        }
      ],
      "stateMutability": "view",
      "type": "function"
    },
    {
      "inputs": [
        {
          "internalType": "address",
          "name": "newOwner",
          "type": "address"
        }
      ],
      "name": "transferOwnership",
      "outputs": [],
      "stateMutability": "nonpayable",
      "type": "function"
    },
    {
      "inputs": [],
      "name": "unpause",
      "outputs": [],
      "stateMutability": "nonpayable",
      "type": "function"
    },
    {
      "inputs": [
        {
          "internalType": "uint256",
          "name": "",
          "type": "uint256"
        }
      ],
      "name": "uri",
      "outputs": [
        {
          "internalType": "string",
          "name": "",
          "type": "string"
        }
      ],
      "stateMutability": "view",
      "type": "function"
    },
    {
      "stateMutability": "payable",
      "type": "receive"
    }
  ],
  "transactionHash": "0x562c4f2df2b2a1a4d96f96a76efcbce94e6aafd98a211f69d6540f2f3363671b",
  "args": [],
  "solcInputHash": "08fcf28f322e72d6e85b9da9a2f91a52",
  "bytecode": "0x608060405234801561001057600080fd5b50613d31806100206000396000f3fe6080604052600436106102125760003560e01c80638da5cb5b11610118578063d45167d0116100a0578063eeee9caf1161006f578063eeee9caf14610620578063f242432a14610640578063f2fde38b14610660578063f5298aca14610680578063f885ee9d146106a057610238565b8063d45167d0146105b6578063e00dd161146105d6578063e8a3d485146105eb578063e985e9c51461060057610238565b8063a07aea1c116100e7578063a07aea1c14610512578063a22cb46514610532578063c155531d14610552578063cd7c032614610581578063d365a3771461059657610238565b80638da5cb5b1461049d57806391f0c0e8146104b2578063938e3d7b146104d2578063995eedef146104f257610238565b806355f804b31161019b5780636d70f7ae1161016a5780636d70f7ae146104135780636e6174fe14610433578063715018a6146104535780637dc0bf3f146104685780638456cb591461048857610238565b806355f804b31461039e5780635c975abb146103be57806364c046b7146103d35780636b20c454146103f357610238565b80632b146fb3116101e25780632b146fb3146102ef5780632eb2c2d61461030f5780633f4ba83a1461032f5780634e1273f414610344578063510b51581461037157610238565b8062fdd58e1461023d57806301ffc9a7146102735780630e89341c146102a05780631ecfacee146102cd57610238565b366102385760405162461bcd60e51b815260040161022f90613560565b60405180910390fd5b600080fd5b34801561024957600080fd5b5061025d610258366004612d9c565b6106c0565b60405161026a91906133fd565b60405180910390f35b34801561027f57600080fd5b5061029361028e366004612f9b565b610713565b60405161026a91906133f2565b3480156102ac57600080fd5b506102c06102bb3660046130a8565b610735565b60405161026a9190613453565b3480156102d957600080fd5b506102ed6102e8366004613021565b6107c9565b005b3480156102fb57600080fd5b506102ed61030a3660046130e4565b6108a0565b34801561031b57600080fd5b506102ed61032a366004612b38565b6108fc565b34801561033b57600080fd5b506102ed610b65565b34801561035057600080fd5b5061036461035f366004612e69565b610bae565b60405161026a91906133ba565b34801561037d57600080fd5b5061039161038c3660046130a8565b610ccd565b60405161026a91906132af565b3480156103aa57600080fd5b506102ed6103b9366004612fef565b610ce8565b3480156103ca57600080fd5b50610293610d33565b3480156103df57600080fd5b506102ed6103ee366004612f61565b610d3d565b3480156103ff57600080fd5b506102ed61040e366004612cac565b610d68565b34801561041f57600080fd5b5061029361042e366004612add565b610dc2565b34801561043f57600080fd5b506102ed61044e366004612ebf565b610de5565b34801561045f57600080fd5b506102ed611003565b34801561047457600080fd5b506102936104833660046130a8565b61108c565b34801561049457600080fd5b506102ed6110a9565b3480156104a957600080fd5b506103916110f0565b3480156104be57600080fd5b5061025d6104cd366004612d4f565b6110ff565b3480156104de57600080fd5b506102ed6104ed366004612fef565b611132565b3480156104fe57600080fd5b506102c061050d3660046130c0565b611188565b34801561051e57600080fd5b506102ed61052d366004612dfb565b61123f565b34801561053e57600080fd5b506102ed61054d366004612d1e565b6112d8565b34801561055e57600080fd5b5061057261056d3660046131c1565b6113a6565b60405161026a9392919061338a565b34801561058d57600080fd5b50610391611441565b3480156105a257600080fd5b506102ed6105b1366004612dfb565b611451565b3480156105c257600080fd5b506103916105d1366004612f61565b611510565b3480156105e257600080fd5b5061025d6115ab565b3480156105f757600080fd5b506102c06115b2565b34801561060c57600080fd5b5061029361061b366004612b00565b611644565b34801561062c57600080fd5b506102ed61063b366004612c47565b61171e565b34801561064c57600080fd5b506102ed61065b366004612be1565b6117b8565b34801561066c57600080fd5b506102ed61067b366004612add565b611952565b34801561068c57600080fd5b506102ed61069b366004612dc7565b611a13565b3480156106ac57600080fd5b506102ed6106bb36600461313d565b611a68565b60006001600160a01b0383166106e85760405162461bcd60e51b815260040161022f9061358b565b50600081815260cb602090815260408083206001600160a01b03861684529091529020545b92915050565b600061071e82611b1f565b8061072d575061072d82611b38565b90505b919050565b606060cd805461074490613ba4565b80601f016020809104026020016040519081016040528092919081815260200182805461077090613ba4565b80156107bd5780601f10610792576101008083540402835291602001916107bd565b820191906000526020600020905b8154815290600101906020018083116107a057829003601f168201915b50505050509050919050565b600054610100900460ff16806107e2575060005460ff16155b6107fe5760405162461bcd60e51b815260040161022f9061381e565b600054610100900460ff16158015610829576000805460ff1961ff0019909116610100171660011790555b610831611b78565b610839611bf4565b61084285611c72565b61084b84611cf0565b82511561085b5761085b83611132565b6001600160a01b038216156108875761010080546001600160a01b0319166001600160a01b0384161790555b8015610899576000805461ff00191690555b5050505050565b6108a8611d62565b6001600160a01b0316836001600160a01b031614806108ce57506108ce8361061b611d62565b6108ea5760405162461bcd60e51b815260040161022f906136c0565b6108f684848484611d66565b50505050565b815183511461091d5760405162461bcd60e51b815260040161022f90613a2e565b6001600160a01b0384166109435760405162461bcd60e51b815260040161022f90613787565b61094b611d62565b6001600160a01b0316856001600160a01b0316148061097157506109718561061b611d62565b61098d5760405162461bcd60e51b815260040161022f906137cc565b6000610997611d62565b90506109a7818787878787610b5d565b60005b8451811015610af75760008582815181106109d557634e487b7160e01b600052603260045260246000fd5b602002602001015190506000858381518110610a0157634e487b7160e01b600052603260045260246000fd5b602090810291909101810151600084815260cb835260408082206001600160a01b038e168352909352919091205490915081811015610a525760405162461bcd60e51b815260040161022f906138af565b610a5c8282613b8d565b60cb600085815260200190815260200160002060008c6001600160a01b03166001600160a01b03168152602001908152602001600020819055508160cb600085815260200190815260200160002060008b6001600160a01b03166001600160a01b031681526020019081526020016000206000828254610adc9190613b11565b9250508190555050505080610af090613bdf565b90506109aa565b50846001600160a01b0316866001600160a01b0316826001600160a01b03167f4a39dc06d4c0dbc64b70af90fd698a233a518aa5d07e595d983b8c0526c8f7fb8787604051610b479291906133cd565b60405180910390a4610b5d818787878787611dde565b505050505050565b610b6d611d62565b6001600160a01b0316610b7e6110f0565b6001600160a01b031614610ba45760405162461bcd60e51b815260040161022f90613930565b610bac611eec565b565b60608151835114610bd15760405162461bcd60e51b815260040161022f906139e5565b600083516001600160401b03811115610bfa57634e487b7160e01b600052604160045260246000fd5b604051908082528060200260200182016040528015610c23578160200160208202803683370190505b50905060005b8451811015610cc557610c8a858281518110610c5557634e487b7160e01b600052603260045260246000fd5b6020026020010151858381518110610c7d57634e487b7160e01b600052603260045260246000fd5b60200260200101516106c0565b828281518110610caa57634e487b7160e01b600052603260045260246000fd5b6020908102919091010152610cbe81613bdf565b9050610c29565b509392505050565b600090815260fd60205260409020546001600160a01b031690565b610cf0611d62565b6001600160a01b0316610d016110f0565b6001600160a01b031614610d275760405162461bcd60e51b815260040161022f90613930565b610d3081611f5a565b50565b60665460ff165b90565b610d4c61042e85858585611510565b6108f65760405162461bcd60e51b815260040161022f90613697565b610d70611d62565b6001600160a01b0316836001600160a01b03161480610d965750610d968361061b611d62565b610db25760405162461bcd60e51b815260040161022f906136c0565b610dbd838383611f6d565b505050565b6001600160a01b031660009081526065602052604090205460ff16151560011490565b610ded611d62565b6001600160a01b0316610dfe6110f0565b6001600160a01b031614610e245760405162461bcd60e51b815260040161022f90613930565b6101015415610e455760405162461bcd60e51b815260040161022f90613760565b60026101015583518551148015610e5d575082518551145b610e795760405162461bcd60e51b815260040161022f90613660565b6101025460005b8651811015610fb857610f3f868281518110610eac57634e487b7160e01b600052603260045260246000fd5b602002602001015183610ebf9190613b11565b888381518110610edf57634e487b7160e01b600052603260045260246000fd5b6020026020010151878481518110610f0757634e487b7160e01b600052603260045260246000fd5b60200260200101518a8581518110610f2f57634e487b7160e01b600052603260045260246000fd5b602002602001015160648861212e565b610fa6878281518110610f6257634e487b7160e01b600052603260045260246000fd5b602002602001015185888481518110610f8b57634e487b7160e01b600052603260045260246000fd5b602002602001015185610f9e9190613b11565b6001876117b8565b80610fb081613bdf565b915050610e80565b508460018651610fc89190613b8d565b81518110610fe657634e487b7160e01b600052603260045260246000fd5b602090810291909101015161010255505060016101015550505050565b61100b611d62565b6001600160a01b031661101c6110f0565b6001600160a01b0316146110425760405162461bcd60e51b815260040161022f90613930565b6033546040516000916001600160a01b0316907f8be0079c531659141344cd1fd0a4f28419497f9722a3daafe3b4186f6b6457e0908390a3603380546001600160a01b0319169055565b600090815260fd60205260409020546001600160a01b0316151590565b6110b1611d62565b6001600160a01b03166110c26110f0565b6001600160a01b0316146110e85760405162461bcd60e51b815260040161022f90613930565b610bac612155565b6033546001600160a01b031690565b60008282604051602001611114929190613366565b60405160208183030381529060405280519060200120905092915050565b61113a611d62565b6001600160a01b031661114b6110f0565b6001600160a01b0316146111715760405162461bcd60e51b815260040161022f90613930565b80516111849060ff906020840190612840565b5050565b60008281526098602090815260408083206001600160a01b038516845290915290208054606091906111b990613ba4565b80601f01602080910402602001604051908101604052809291908181526020018280546111e590613ba4565b80156112325780601f1061120757610100808354040283529160200191611232565b820191906000526020600020905b81548152906001019060200180831161121557829003601f168201915b5050505050905092915050565b611247611d62565b6001600160a01b03166112586110f0565b6001600160a01b03161461127e5760405162461bcd60e51b815260040161022f90613930565b60005b81811015610dbd576112c68383838181106112ac57634e487b7160e01b600052603260045260246000fd5b90506020020160208101906112c19190612add565b611cf0565b806112d081613bdf565b915050611281565b816001600160a01b03166112ea611d62565b6001600160a01b031614156113115760405162461bcd60e51b815260040161022f9061399c565b8060cc600061131e611d62565b6001600160a01b03908116825260208083019390935260409182016000908120918716808252919093529120805460ff191692151592909217909155611362611d62565b6001600160a01b03167f17307eab39ab6107e8899845ad3d59bd9653f200f220920489ca2b5937696c318360405161139a91906133f2565b60405180910390a35050565b600084815260fe60209081526040808320815180830190925280546001600160a01b031680835260019091015492820192909252829160609190611400575050604080516020810190915260008082529250829150611437565b8051602082015161271090611415908a613b6e565b61141f9190613b4e565b60405180602001604052806000815250935093509350505b9450945094915050565b610100546001600160a01b031681565b611459611d62565b6001600160a01b031661146a6110f0565b6001600160a01b0316146114905760405162461bcd60e51b815260040161022f90613930565b60005b81811015610dbd576000606560008585858181106114c157634e487b7160e01b600052603260045260246000fd5b90506020020160208101906114d69190612add565b6001600160a01b031681526020810191909152604001600020805460ff19169115159190911790558061150881613bdf565b915050611493565b6000601b8460ff16101561152c57611529601b85613b29565b93505b60018560405160200161153f919061327e565b60405160208183030381529060405280519060200120858585604051600081526020016040526040516115759493929190613406565b6020604051602081039080840390855afa158015611597573d6000803e3d6000fd5b5050604051601f1901519695505050505050565b6101025481565b606060ff80546115c190613ba4565b80601f01602080910402602001604051908101604052809291908181526020018280546115ed90613ba4565b801561163a5780601f1061160f5761010080835404028352916020019161163a565b820191906000526020600020905b81548152906001019060200180831161161d57829003601f168201915b5050505050905090565b6000610101546002141561165a5750600161070d565b610100546001600160a01b0316801561170c5760405163c455279160e01b815281906001600160a01b03808616919083169063c4552791906116a09089906004016132af565b60206040518083038186803b1580156116b857600080fd5b505afa1580156116cc573d6000803e3d6000fd5b505050506040513d601f19601f820116820180604052508101906116f09190612fd3565b6001600160a01b0316141561170a5760019250505061070d565b505b61171684846121b0565b949350505050565b815184511461173f5760405162461bcd60e51b815260040161022f90613660565b60005b8451811015610b5d576117a68686838151811061176f57634e487b7160e01b600052603260045260246000fd5b60200260200101518686858151811061179857634e487b7160e01b600052603260045260246000fd5b6020026020010151866117b8565b806117b081613bdf565b915050611742565b6001600160a01b0384166117de5760405162461bcd60e51b815260040161022f90613787565b6117e6611d62565b6001600160a01b0316856001600160a01b0316148061180c575061180c8561061b611d62565b6118285760405162461bcd60e51b815260040161022f906136c0565b6000611832611d62565b9050611852818787611843886121de565b61184c886121de565b87610b5d565b600084815260cb602090815260408083206001600160a01b038a168452909152902054838110156118955760405162461bcd60e51b815260040161022f906138af565b61189f8482613b8d565b600086815260cb602090815260408083206001600160a01b038c811685529252808320939093558816815290812080548692906118dd908490613b11565b92505081905550856001600160a01b0316876001600160a01b0316836001600160a01b03167fc3d58168c5ae7397731d063d5bbf3d657854427343f4c083240f7aacaa2d0f628888604051611933929190613ab7565b60405180910390a4611949828888888888612237565b50505050505050565b61195a611d62565b6001600160a01b031661196b6110f0565b6001600160a01b0316146119915760405162461bcd60e51b815260040161022f90613930565b6001600160a01b0381166119b75760405162461bcd60e51b815260040161022f906135d6565b6033546040516001600160a01b038084169216907f8be0079c531659141344cd1fd0a4f28419497f9722a3daafe3b4186f6b6457e090600090a3603380546001600160a01b0319166001600160a01b0392909216919091179055565b611a1b611d62565b6001600160a01b0316836001600160a01b03161480611a415750611a418361061b611d62565b611a5d5760405162461bcd60e51b815260040161022f906136c0565b610dbd838383612308565b611a70610d33565b15611a8d5760405162461bcd60e51b815260040161022f90613736565b6000611a9933866110ff565b9050611aa781858585610d3d565b6000818152610103602052604090205460ff1615611ad75760405162461bcd60e51b815260040161022f906138f9565b600081815261010360205260408120805460ff1916600190811790915561010254611b0191613b11565b9050611b1181338b8a8c8b61212e565b610102555050505050505050565b6001600160e01b0319811663c155531d60e01b14919050565b60006001600160e01b03198216636cdb3d1360e11b1480611b6957506001600160e01b031982166303a24d0760e21b145b8061072d575061072d82612425565b600054610100900460ff1680611b91575060005460ff16155b611bad5760405162461bcd60e51b815260040161022f9061381e565b600054610100900460ff16158015611bd8576000805460ff1961ff0019909116610100171660011790555b611be061243e565b8015610d30576000805461ff001916905550565b600054610100900460ff1680611c0d575060005460ff16155b611c295760405162461bcd60e51b815260040161022f9061381e565b600054610100900460ff16158015611c54576000805460ff1961ff0019909116610100171660011790555b6066805460ff191690558015610d30576000805461ff001916905550565b600054610100900460ff1680611c8b575060005460ff16155b611ca75760405162461bcd60e51b815260040161022f9061381e565b600054610100900460ff16158015611cd2576000805460ff1961ff0019909116610100171660011790555b611cdb826124ae565b8015611184576000805461ff00191690555050565b6001600160a01b038116611d165760405162461bcd60e51b815260040161022f90613530565b6001600160a01b038116600081815260656020526040808220805460ff19166001179055517fac6fa858e9350a46cec16539926e0fde25b7629f84b5a72bffaae4df888ae86d9190a250565b3390565b60008481526098602090815260408083206001600160a01b03871684529091529020611d939083836128c4565b50826001600160a01b0316847f9510e529f90f89b8e0d0478bc302a5469d8d14ffb7109ac85028e48f36c44bee8484604051611dd0929190613424565b60405180910390a350505050565b611df0846001600160a01b0316612517565b15610b5d5760405163bc197c8160e01b81526001600160a01b0385169063bc197c8190611e2990899089908890889088906004016132c3565b602060405180830381600087803b158015611e4357600080fd5b505af1925050508015611e73575060408051601f3d908101601f19168201909252611e7091810190612fb7565b60015b611ebc57611e7f613c2c565b80611e8a5750611ea4565b8060405162461bcd60e51b815260040161022f9190613453565b60405162461bcd60e51b815260040161022f90613466565b6001600160e01b0319811663bc197c8160e01b146119495760405162461bcd60e51b815260040161022f906134ba565b611ef4610d33565b611f105760405162461bcd60e51b815260040161022f90613502565b6066805460ff191690557f5db9ee0a495bf2e6ff9c91a7834c1ba4fdd244a5e8aa4e537bd38aeae4b073aa611f43611d62565b604051611f5091906132af565b60405180910390a1565b80516111849060cd906020840190612840565b6001600160a01b038316611f935760405162461bcd60e51b815260040161022f9061386c565b8051825114611fb45760405162461bcd60e51b815260040161022f90613a2e565b6000611fbe611d62565b9050611fde81856000868660405180602001604052806000815250610b5d565b60005b83518110156120cf57600084828151811061200c57634e487b7160e01b600052603260045260246000fd5b60200260200101519050600084838151811061203857634e487b7160e01b600052603260045260246000fd5b602090810291909101810151600084815260cb835260408082206001600160a01b038c1683529093529190912054909150818110156120895760405162461bcd60e51b815260040161022f9061361c565b6120938282613b8d565b600093845260cb602090815260408086206001600160a01b038c16875290915290932092909255508190506120c781613bdf565b915050611fe1565b5060006001600160a01b0316846001600160a01b0316826001600160a01b03167f4a39dc06d4c0dbc64b70af90fd698a233a518aa5d07e595d983b8c0526c8f7fb86866040516121209291906133cd565b60405180910390a450505050565b61213a8587868461251d565b61214486866125ff565b8115610b5d57610b5d86848461262d565b61215d610d33565b1561217a5760405162461bcd60e51b815260040161022f90613736565b6066805460ff191660011790557f62e78cea01bee320cd4e420270b5ea74000d11b0c9f74754ebdbfc544b05a258611f43611d62565b6001600160a01b03918216600090815260cc6020908152604080832093909416825291909152205460ff1690565b6040805160018082528183019092526060916000919060208083019080368337019050509050828160008151811061222657634e487b7160e01b600052603260045260246000fd5b602090810291909101015292915050565b612249846001600160a01b0316612517565b15610b5d5760405163f23a6e6160e01b81526001600160a01b0385169063f23a6e61906122829089908990889088908890600401613321565b602060405180830381600087803b15801561229c57600080fd5b505af19250505080156122cc575060408051601f3d908101601f191682019092526122c991810190612fb7565b60015b6122d857611e7f613c2c565b6001600160e01b0319811663f23a6e6160e01b146119495760405162461bcd60e51b815260040161022f906134ba565b6001600160a01b03831661232e5760405162461bcd60e51b815260040161022f9061386c565b6000612338611d62565b90506123688185600061234a876121de565b612353876121de565b60405180602001604052806000815250610b5d565b600083815260cb602090815260408083206001600160a01b0388168452909152902054828110156123ab5760405162461bcd60e51b815260040161022f9061361c565b6123b58382613b8d565b600085815260cb602090815260408083206001600160a01b03808b16808652919093528184209490945551919291908516907fc3d58168c5ae7397731d063d5bbf3d657854427343f4c083240f7aacaa2d0f62906124169089908990613ab7565b60405180910390a45050505050565b6001600160e01b031981166301ffc9a760e01b14919050565b600054610100900460ff1680612457575060005460ff16155b6124735760405162461bcd60e51b815260040161022f9061381e565b600054610100900460ff1615801561249e576000805460ff1961ff0019909116610100171660011790555b6124a6612701565b611be0612774565b600054610100900460ff16806124c7575060005460ff16155b6124e35760405162461bcd60e51b815260040161022f9061381e565b600054610100900460ff1615801561250e576000805460ff1961ff0019909116610100171660011790555b611cdb82611f5a565b3b151590565b6001600160a01b0384166125435760405162461bcd60e51b815260040161022f90613a76565b600061254d611d62565b905061255f81600087611843886121de565b600084815260cb602090815260408083206001600160a01b038916845290915281208054859290612591908490613b11565b92505081905550846001600160a01b031660006001600160a01b0316826001600160a01b03167fc3d58168c5ae7397731d063d5bbf3d657854427343f4c083240f7aacaa2d0f6287876040516125e8929190613ab7565b60405180910390a461089981600087878787612237565b600091825260fd602052604090912080546001600160a01b0319166001600160a01b03909216919091179055565b6001600160a01b0382166126535760405162461bcd60e51b815260040161022f90613965565b6127108111156126755760405162461bcd60e51b815260040161022f90613709565b6040805180820182526001600160a01b038481168083526020808401868152600089815260fe90925290859020935184546001600160a01b03191693169290921783559051600190920191909155905184907f48088c08557ca46900507e5992528d0b09f68ff628983baa175716d6bcf7e4c3906126f49085906133fd565b60405180910390a3505050565b600054610100900460ff168061271a575060005460ff16155b6127365760405162461bcd60e51b815260040161022f9061381e565b600054610100900460ff16158015611be0576000805460ff1961ff0019909116610100171660011790558015610d30576000805461ff001916905550565b600054610100900460ff168061278d575060005460ff16155b6127a95760405162461bcd60e51b815260040161022f9061381e565b600054610100900460ff161580156127d4576000805460ff1961ff0019909116610100171660011790555b60006127de611d62565b603380546001600160a01b0319166001600160a01b038316908117909155604051919250906000907f8be0079c531659141344cd1fd0a4f28419497f9722a3daafe3b4186f6b6457e0908290a3508015610d30576000805461ff001916905550565b82805461284c90613ba4565b90600052602060002090601f01602090048101928261286e57600085556128b4565b82601f1061288757805160ff19168380011785556128b4565b828001600101855582156128b4579182015b828111156128b4578251825591602001919060010190612899565b506128c0929150612938565b5090565b8280546128d090613ba4565b90600052602060002090601f0160209004810192826128f257600085556128b4565b82601f1061290b5782800160ff198235161785556128b4565b828001600101855582156128b4579182015b828111156128b457823582559160200191906001019061291d565b5b808211156128c05760008155600101612939565b600082601f83011261295d578081fd5b8135602061297261296d83613aee565b613ac5565b828152818101908583018385028701840188101561298e578586fd5b855b858110156129b55781356129a381613cd0565b84529284019290840190600101612990565b5090979650505050505050565b600082601f8301126129d2578081fd5b813560206129e261296d83613aee565b82815281810190858301838502870184018810156129fe578586fd5b855b858110156129b557813584529284019290840190600101612a00565b60008083601f840112612a2d578182fd5b5081356001600160401b03811115612a43578182fd5b602083019150836020828501011115612a5b57600080fd5b9250929050565b600082601f830112612a72578081fd5b81356001600160401b03811115612a8b57612a8b613c10565b612a9e601f8201601f1916602001613ac5565b818152846020838601011115612ab2578283fd5b816020850160208301379081016020019190915292915050565b803560ff8116811461073057600080fd5b600060208284031215612aee578081fd5b8135612af981613cd0565b9392505050565b60008060408385031215612b12578081fd5b8235612b1d81613cd0565b91506020830135612b2d81613cd0565b809150509250929050565b600080600080600060a08688031215612b4f578081fd5b8535612b5a81613cd0565b94506020860135612b6a81613cd0565b935060408601356001600160401b0380821115612b85578283fd5b612b9189838a016129c2565b94506060880135915080821115612ba6578283fd5b612bb289838a016129c2565b93506080880135915080821115612bc7578283fd5b50612bd488828901612a62565b9150509295509295909350565b600080600080600060a08688031215612bf8578081fd5b8535612c0381613cd0565b94506020860135612c1381613cd0565b9350604086013592506060860135915060808601356001600160401b03811115612c3b578182fd5b612bd488828901612a62565b600080600080600060a08688031215612c5e578283fd5b8535612c6981613cd0565b945060208601356001600160401b0380821115612c84578485fd5b612c9089838a0161294d565b9550604088013594506060880135915080821115612ba6578283fd5b600080600060608486031215612cc0578081fd5b8335612ccb81613cd0565b925060208401356001600160401b0380821115612ce6578283fd5b612cf2878388016129c2565b93506040860135915080821115612d07578283fd5b50612d14868287016129c2565b9150509250925092565b60008060408385031215612d30578182fd5b8235612d3b81613cd0565b915060208301358015158114612b2d578182fd5b60008060408385031215612d61578182fd5b8235612d6c81613cd0565b915060208301356001600160401b03811115612d86578182fd5b612d9285828601612a62565b9150509250929050565b60008060408385031215612dae578182fd5b8235612db981613cd0565b946020939093013593505050565b600080600060608486031215612ddb578081fd5b8335612de681613cd0565b95602085013595506040909401359392505050565b60008060208385031215612e0d578182fd5b82356001600160401b0380821115612e23578384fd5b818501915085601f830112612e36578384fd5b813581811115612e44578485fd5b8660208083028501011115612e57578485fd5b60209290920196919550909350505050565b60008060408385031215612e7b578182fd5b82356001600160401b0380821115612e91578384fd5b612e9d8683870161294d565b93506020850135915080821115612eb2578283fd5b50612d92858286016129c2565b600080600080600060a08688031215612ed6578283fd5b85356001600160401b0380821115612eec578485fd5b612ef889838a0161294d565b96506020880135915080821115612f0d578485fd5b612f1989838a016129c2565b95506040880135915080821115612f2e578485fd5b612f3a89838a016129c2565b945060608801359150612f4c82613cd0565b90925060808701359080821115612bc7578283fd5b60008060008060808587031215612f76578182fd5b84359350612f8660208601612acc565b93969395505050506040820135916060013590565b600060208284031215612fac578081fd5b8135612af981613ce5565b600060208284031215612fc8578081fd5b8151612af981613ce5565b600060208284031215612fe4578081fd5b8151612af981613cd0565b600060208284031215613000578081fd5b81356001600160401b03811115613015578182fd5b61171684828501612a62565b60008060008060808587031215613036578182fd5b84356001600160401b038082111561304c578384fd5b61305888838901612a62565b95506020870135915061306a82613cd0565b9093506040860135908082111561307f578384fd5b5061308c87828801612a62565b925050606085013561309d81613cd0565b939692955090935050565b6000602082840312156130b9578081fd5b5035919050565b600080604083850312156130d2578182fd5b823591506020830135612b2d81613cd0565b600080600080606085870312156130f9578182fd5b84359350602085013561310b81613cd0565b925060408501356001600160401b03811115613125578283fd5b61313187828801612a1c565b95989497509550505050565b600080600080600080600060e0888a031215613157578485fd5b8735965060208801359550604088013561317081613cd0565b945060608801356001600160401b0381111561318a578283fd5b6131968a828b01612a62565b9450506131a560808901612acc565b925060a0880135915060c0880135905092959891949750929550565b600080600080606085870312156131d6578182fd5b843593506020850135925060408501356001600160401b03811115613125578283fd5b6000815180845260208085019450808401835b838110156132285781518752958201959082019060010161320c565b509495945050505050565b60008151808452815b818110156132585760208185018101518683018201520161323c565b818111156132695782602083870101525b50601f01601f19169290920160200192915050565b7f19457468657265756d205369676e6564204d6573736167653a0a3332000000008152601c810191909152603c0190565b6001600160a01b0391909116815260200190565b6001600160a01b0386811682528516602082015260a0604082018190526000906132ef908301866131f9565b828103606084015261330181866131f9565b905082810360808401526133158185613233565b98975050505050505050565b6001600160a01b03868116825285166020820152604081018490526060810183905260a06080820181905260009061335b90830184613233565b979650505050505050565b6001600160a01b038316815260406020820181905260009061171690830184613233565b600060018060a01b0385168252836020830152606060408301526133b16060830184613233565b95945050505050565b600060208252612af960208301846131f9565b6000604082526133e060408301856131f9565b82810360208401526133b181856131f9565b901515815260200190565b90815260200190565b93845260ff9290921660208401526040830152606082015260800190565b60006020825282602083015282846040840137818301604090810191909152601f909201601f19160101919050565b600060208252612af96020830184613233565b60208082526034908201527f455243313135353a207472616e7366657220746f206e6f6e20455243313135356040820152732932b1b2b4bb32b91034b6b83632b6b2b73a32b960611b606082015260800190565b60208082526028908201527f455243313135353a204552433131353552656365697665722072656a656374656040820152676420746f6b656e7360c01b606082015260800190565b60208082526014908201527314185d5cd8589b194e881b9bdd081c185d5cd95960621b604082015260600190565b6020808252601690820152752937b6329d1034b73b30b634b21027b832b930ba37b960511b604082015260600190565b602080825260119082015270139bc81d985b1d59481858d8d95c1d1959607a1b604082015260600190565b6020808252602b908201527f455243313135353a2062616c616e636520717565727920666f7220746865207a60408201526a65726f206164647265737360a81b606082015260800190565b60208082526026908201527f4f776e61626c653a206e6577206f776e657220697320746865207a65726f206160408201526564647265737360d01b606082015260800190565b60208082526024908201527f455243313135353a206275726e20616d6f756e7420657863656564732062616c604082015263616e636560e01b606082015260800190565b60208082526018908201527f455243313135353a206c656e677468206d69736d617463680000000000000000604082015260600190565b6020808252600f908201526e57726f6e67205369676e617475726560881b604082015260600190565b60208082526029908201527f455243313135353a2063616c6c6572206973206e6f74206f776e6572206e6f7260408201526808185c1c1c9bdd995960ba1b606082015260800190565b6020808252601390820152720a4def2c2d8e8d2cae67440a8dede40d0d2ced606b1b604082015260600190565b60208082526010908201526f14185d5cd8589b194e881c185d5cd95960821b604082015260600190565b6020808252600d908201526c20b63932b0b23c903ab9b2b21760991b604082015260600190565b60208082526025908201527f455243313135353a207472616e7366657220746f20746865207a65726f206164604082015264647265737360d81b606082015260800190565b60208082526032908201527f455243313135353a207472616e736665722063616c6c6572206973206e6f74206040820152711bdddb995c881b9bdc88185c1c1c9bdd995960721b606082015260800190565b6020808252602e908201527f496e697469616c697a61626c653a20636f6e747261637420697320616c72656160408201526d191e481a5b9a5d1a585b1a5e995960921b606082015260800190565b60208082526023908201527f455243313135353a206275726e2066726f6d20746865207a65726f206164647260408201526265737360e81b606082015260800190565b6020808252602a908201527f455243313135353a20696e73756666696369656e742062616c616e636520666f60408201526939103a3930b739b332b960b11b606082015260800190565b60208082526017908201527f455243313135353a20416c7265616479206d696e746564000000000000000000604082015260600190565b6020808252818101527f4f776e61626c653a2063616c6c6572206973206e6f7420746865206f776e6572604082015260600190565b6020808252601c908201527f526f79616c746965733a20496e76616c696420726563697069656e7400000000604082015260600190565b60208082526029908201527f455243313135353a2073657474696e6720617070726f76616c20737461747573604082015268103337b91039b2b63360b91b606082015260800190565b60208082526029908201527f455243313135353a206163636f756e747320616e6420696473206c656e677468604082015268040dad2e6dac2e8c6d60bb1b606082015260800190565b60208082526028908201527f455243313135353a2069647320616e6420616d6f756e7473206c656e677468206040820152670dad2e6dac2e8c6d60c31b606082015260800190565b60208082526021908201527f455243313135353a206d696e7420746f20746865207a65726f206164647265736040820152607360f81b606082015260800190565b918252602082015260400190565b6040518181016001600160401b0381118282101715613ae657613ae6613c10565b604052919050565b60006001600160401b03821115613b0757613b07613c10565b5060209081020190565b60008219821115613b2457613b24613bfa565b500190565b600060ff821660ff84168060ff03821115613b4657613b46613bfa565b019392505050565b600082613b6957634e487b7160e01b81526012600452602481fd5b500490565b6000816000190483118215151615613b8857613b88613bfa565b500290565b600082821015613b9f57613b9f613bfa565b500390565b600281046001821680613bb857607f821691505b60208210811415613bd957634e487b7160e01b600052602260045260246000fd5b50919050565b6000600019821415613bf357613bf3613bfa565b5060010190565b634e487b7160e01b600052601160045260246000fd5b634e487b7160e01b600052604160045260246000fd5b60e01c90565b600060443d1015613c3c57610d3a565b600481823e6308c379a0613c508251613c26565b14613c5a57610d3a565b6040513d600319016004823e80513d6001600160401b038160248401118184111715613c895750505050610d3a565b82840192508251915080821115613ca35750505050610d3a565b503d83016020828401011115613cbb57505050610d3a565b601f01601f1916810160200160405291505090565b6001600160a01b0381168114610d3057600080fd5b6001600160e01b031981168114610d3057600080fdfea26469706673582212208de8ef67fefc2533136e5083925faf09cf4d84990ab0af6c827ec3e67333a27464736f6c63430008000033",
  "devdoc": {
    "kind": "dev",
    "methods": {
      "balanceOf(address,uint256)": {
        "details": "See {IERC1155-balanceOf}. Requirements: - `account` cannot be the zero address."
      },
      "balanceOfBatch(address[],uint256[])": {
        "details": "See {IERC1155-balanceOfBatch}. Requirements: - `accounts` and `ids` must have the same length."
      },
      "creator(uint256)": {
        "details": "returns `id`'s creator"
      },
      "mint(uint256,uint256,address,bytes,uint8,bytes32,bytes32)": {
        "details": "Minting function - With royalties Requirements: - An  Operator must have signed (msg.sender, data), which allows to link the mint to our off-chain data and to prove that the user has the right to mint"
      },
      "minted(uint256)": {
        "details": "Method to know if a token has already been minted or not"
      },
      "owner()": {
        "details": "Returns the address of the current owner."
      },
      "pause()": {
        "details": "Pauses all token creation. Requirements: - the caller must have the `DEFAULT_ADMIN_ROLE`."
      },
      "paused()": {
        "details": "Returns true if the contract is paused, and false otherwise."
      },
      "renounceOwnership()": {
        "details": "Leaves the contract without owner. It will not be possible to call `onlyOwner` functions anymore. Can only be called by the current owner. NOTE: Renouncing ownership will leave the contract without an owner, thereby removing any functionality that is only available to the owner."
      },
      "requireOperatorSignature(bytes32,uint8,bytes32,bytes32)": {
        "details": "Verify that mint was aknowledge by an operator"
      },
      "safeBatchTransferFrom(address,address,uint256[],uint256[],bytes)": {
        "details": "See {IERC1155-safeBatchTransferFrom}."
      },
      "safeBatchTransferIdFrom(address,address[],uint256,uint256[],bytes)": {
        "details": "allows to transfer one id to several recipient with corresponding amounts"
      },
      "safeMintBatchForArtistsAndTransfer(address[],uint256[],uint256[],address,bytes)": {
        "details": "allows to create Batch NFTs and to send part of those to some recipient This function is a ONE TIME USE Use cases are \"Giveaways\" and things like this."
      },
      "safeTransferFrom(address,address,uint256,uint256,bytes)": {
        "details": "See {IERC1155-safeTransferFrom}."
      },
      "setApprovalForAll(address,bool)": {
        "details": "See {IERC1155-setApprovalForAll}."
      },
      "supportsInterface(bytes4)": {
        "details": "See {IERC165-supportsInterface}."
      },
      "transferOwnership(address)": {
        "details": "Transfers ownership of the contract to a new account (`newOwner`). Can only be called by the current owner."
      },
      "unpause()": {
        "details": "Unpauses all token creation. Requirements: - the caller must have the `DEFAULT_ADMIN_ROLE`."
      },
      "uri(uint256)": {
        "details": "See {IERC1155MetadataURI-uri}. This implementation returns the same URI for *all* token types. It relies on the token type ID substitution mechanism https://eips.ethereum.org/EIPS/eip-1155#metadata[defined in the EIP]. Clients calling this function must replace the `\\{id\\}` substring with the actual token type ID."
      }
    },
    "version": 1
  },
  "userdoc": {
    "kind": "user",
    "methods": {
      "interactiveConfURI(uint256,address)": {
        "notice": "Configuration uri for tokenId"
      },
      "isApprovedForAll(address,address)": {
        "notice": "Override isApprovedForAll to whitelist user's OpenSea proxy accounts to enable gas-free listings."
      },
      "setBaseURI(string)": {
        "notice": "Function to let Owner set the baseURI"
      },
      "setInteractiveConfURI(uint256,address,string)": {
        "notice": "Function to let Owner set configurationURI"
      }
    },
    "version": 1
  },
  "storageLayout": {
    "storage": [
      {
        "astId": 136,
        "contract": "contracts/EditionsRegistry.sol:EditionsRegistry",
        "label": "_initialized",
        "offset": 0,
        "slot": "0",
        "type": "t_bool"
      },
      {
        "astId": 139,
        "contract": "contracts/EditionsRegistry.sol:EditionsRegistry",
        "label": "_initializing",
        "offset": 1,
        "slot": "0",
        "type": "t_bool"
      },
      {
        "astId": 1873,
        "contract": "contracts/EditionsRegistry.sol:EditionsRegistry",
        "label": "__gap",
        "offset": 0,
        "slot": "1",
        "type": "t_array(t_uint256)50_storage"
      },
      {
        "astId": 10,
        "contract": "contracts/EditionsRegistry.sol:EditionsRegistry",
        "label": "_owner",
        "offset": 0,
        "slot": "51",
        "type": "t_address"
      },
      {
        "astId": 129,
        "contract": "contracts/EditionsRegistry.sol:EditionsRegistry",
        "label": "__gap",
        "offset": 0,
        "slot": "52",
        "type": "t_array(t_uint256)49_storage"
      },
      {
        "astId": 5061,
        "contract": "contracts/EditionsRegistry.sol:EditionsRegistry",
        "label": "_operators",
        "offset": 0,
        "slot": "101",
        "type": "t_mapping(t_address,t_bool)"
      },
      {
        "astId": 197,
        "contract": "contracts/EditionsRegistry.sol:EditionsRegistry",
        "label": "_paused",
        "offset": 0,
        "slot": "102",
        "type": "t_bool"
      },
      {
        "astId": 288,
        "contract": "contracts/EditionsRegistry.sol:EditionsRegistry",
        "label": "__gap",
        "offset": 0,
        "slot": "103",
        "type": "t_array(t_uint256)49_storage"
      },
      {
        "astId": 6822,
        "contract": "contracts/EditionsRegistry.sol:EditionsRegistry",
        "label": "_interactiveConfURIs",
        "offset": 0,
        "slot": "152",
        "type": "t_mapping(t_uint256,t_mapping(t_address,t_string_storage))"
      },
      {
        "astId": 1919,
        "contract": "contracts/EditionsRegistry.sol:EditionsRegistry",
        "label": "__gap",
        "offset": 0,
        "slot": "153",
        "type": "t_array(t_uint256)50_storage"
      },
      {
        "astId": 376,
        "contract": "contracts/EditionsRegistry.sol:EditionsRegistry",
        "label": "_balances",
        "offset": 0,
        "slot": "203",
        "type": "t_mapping(t_uint256,t_mapping(t_address,t_uint256))"
      },
      {
        "astId": 382,
        "contract": "contracts/EditionsRegistry.sol:EditionsRegistry",
        "label": "_operatorApprovals",
        "offset": 0,
        "slot": "204",
        "type": "t_mapping(t_address,t_mapping(t_address,t_bool))"
      },
      {
        "astId": 384,
        "contract": "contracts/EditionsRegistry.sol:EditionsRegistry",
        "label": "_uri",
        "offset": 0,
        "slot": "205",
        "type": "t_string_storage"
      },
      {
        "astId": 1406,
        "contract": "contracts/EditionsRegistry.sol:EditionsRegistry",
        "label": "__gap",
        "offset": 0,
        "slot": "206",
        "type": "t_array(t_uint256)47_storage"
      },
      {
        "astId": 6873,
        "contract": "contracts/EditionsRegistry.sol:EditionsRegistry",
        "label": "_creators",
        "offset": 0,
        "slot": "253",
        "type": "t_mapping(t_uint256,t_address)"
      },
      {
        "astId": 6955,
        "contract": "contracts/EditionsRegistry.sol:EditionsRegistry",
        "label": "_royalties",
        "offset": 0,
        "slot": "254",
        "type": "t_mapping(t_uint256,t_struct(Royalty)6950_storage)"
      },
      {
        "astId": 5871,
        "contract": "contracts/EditionsRegistry.sol:EditionsRegistry",
        "label": "_contractURI",
        "offset": 0,
        "slot": "255",
        "type": "t_string_storage"
      },
      {
        "astId": 5873,
        "contract": "contracts/EditionsRegistry.sol:EditionsRegistry",
        "label": "proxyRegistryAddress",
        "offset": 0,
        "slot": "256",
        "type": "t_address"
      },
      {
        "astId": 5856,
        "contract": "contracts/EditionsRegistry.sol:EditionsRegistry",
        "label": "_safeMintBatchForArtistsAndTransferFlag",
        "offset": 0,
        "slot": "257",
        "type": "t_uint256"
      },
      {
        "astId": 5858,
        "contract": "contracts/EditionsRegistry.sol:EditionsRegistry",
        "label": "currentId",
        "offset": 0,
        "slot": "258",
        "type": "t_uint256"
      },
      {
        "astId": 5862,
        "contract": "contracts/EditionsRegistry.sol:EditionsRegistry",
        "label": "alreadyMinted",
        "offset": 0,
        "slot": "259",
        "type": "t_mapping(t_bytes32,t_bool)"
      }
    ],
    "types": {
      "t_address": {
        "encoding": "inplace",
        "label": "address",
        "numberOfBytes": "20"
      },
      "t_array(t_uint256)47_storage": {
        "base": "t_uint256",
        "encoding": "inplace",
        "label": "uint256[47]",
        "numberOfBytes": "1504"
      },
      "t_array(t_uint256)49_storage": {
        "base": "t_uint256",
        "encoding": "inplace",
        "label": "uint256[49]",
        "numberOfBytes": "1568"
      },
      "t_array(t_uint256)50_storage": {
        "base": "t_uint256",
        "encoding": "inplace",
        "label": "uint256[50]",
        "numberOfBytes": "1600"
      },
      "t_bool": {
        "encoding": "inplace",
        "label": "bool",
        "numberOfBytes": "1"
      },
      "t_bytes32": {
        "encoding": "inplace",
        "label": "bytes32",
        "numberOfBytes": "32"
      },
      "t_mapping(t_address,t_bool)": {
        "encoding": "mapping",
        "key": "t_address",
        "label": "mapping(address => bool)",
        "numberOfBytes": "32",
        "value": "t_bool"
      },
      "t_mapping(t_address,t_mapping(t_address,t_bool))": {
        "encoding": "mapping",
        "key": "t_address",
        "label": "mapping(address => mapping(address => bool))",
        "numberOfBytes": "32",
        "value": "t_mapping(t_address,t_bool)"
      },
      "t_mapping(t_address,t_string_storage)": {
        "encoding": "mapping",
        "key": "t_address",
        "label": "mapping(address => string)",
        "numberOfBytes": "32",
        "value": "t_string_storage"
      },
      "t_mapping(t_address,t_uint256)": {
        "encoding": "mapping",
        "key": "t_address",
        "label": "mapping(address => uint256)",
        "numberOfBytes": "32",
        "value": "t_uint256"
      },
      "t_mapping(t_bytes32,t_bool)": {
        "encoding": "mapping",
        "key": "t_bytes32",
        "label": "mapping(bytes32 => bool)",
        "numberOfBytes": "32",
        "value": "t_bool"
      },
      "t_mapping(t_uint256,t_address)": {
        "encoding": "mapping",
        "key": "t_uint256",
        "label": "mapping(uint256 => address)",
        "numberOfBytes": "32",
        "value": "t_address"
      },
      "t_mapping(t_uint256,t_mapping(t_address,t_string_storage))": {
        "encoding": "mapping",
        "key": "t_uint256",
        "label": "mapping(uint256 => mapping(address => string))",
        "numberOfBytes": "32",
        "value": "t_mapping(t_address,t_string_storage)"
      },
      "t_mapping(t_uint256,t_mapping(t_address,t_uint256))": {
        "encoding": "mapping",
        "key": "t_uint256",
        "label": "mapping(uint256 => mapping(address => uint256))",
        "numberOfBytes": "32",
        "value": "t_mapping(t_address,t_uint256)"
      },
      "t_mapping(t_uint256,t_struct(Royalty)6950_storage)": {
        "encoding": "mapping",
        "key": "t_uint256",
        "label": "mapping(uint256 => struct ERC2981Royalties.Royalty)",
        "numberOfBytes": "32",
        "value": "t_struct(Royalty)6950_storage"
      },
      "t_string_storage": {
        "encoding": "bytes",
        "label": "string",
        "numberOfBytes": "32"
      },
      "t_struct(Royalty)6950_storage": {
        "encoding": "inplace",
        "label": "struct ERC2981Royalties.Royalty",
        "members": [
          {
            "astId": 6947,
            "contract": "contracts/EditionsRegistry.sol:EditionsRegistry",
            "label": "recipient",
            "offset": 0,
            "slot": "0",
            "type": "t_address"
          },
          {
            "astId": 6949,
            "contract": "contracts/EditionsRegistry.sol:EditionsRegistry",
            "label": "value",
            "offset": 0,
            "slot": "1",
            "type": "t_uint256"
          }
        ],
        "numberOfBytes": "64"
      },
      "t_uint256": {
        "encoding": "inplace",
        "label": "uint256",
        "numberOfBytes": "32"
      }
    }
  }
}