{
  "address": "0x64F55c1305F11CCE4B00E0593287682F1862966E",
  "abi": [
    {
      "anonymous": false,
      "inputs": [
        {
          "indexed": true,
          "internalType": "address",
          "name": "account",
          "type": "address"
        },
        {
          "indexed": true,
          "internalType": "address",
          "name": "operator",
          "type": "address"
        },
        {
          "indexed": false,
          "internalType": "bool",
          "name": "approved",
          "type": "bool"
        }
      ],
      "name": "ApprovalForAll",
      "type": "event"
    },
    {
      "anonymous": false,
      "inputs": [
        {
          "indexed": true,
          "internalType": "uint256",
          "name": "tokenId",
          "type": "uint256"
        },
        {
          "indexed": true,
          "internalType": "address",
          "name": "owner",
          "type": "address"
        },
        {
          "indexed": false,
          "internalType": "string",
          "name": "configurationURI",
          "type": "string"
        }
      ],
      "name": "ConfigurationURI",
      "type": "event"
    },
    {
      "anonymous": false,
      "inputs": [
        {
          "indexed": true,
          "internalType": "uint256",
          "name": "tokenId",
          "type": "uint256"
        },
        {
          "indexed": true,
          "internalType": "bytes",
          "name": "data",
          "type": "bytes"
        }
      ],
      "name": "Mint",
      "type": "event"
    },
    {
      "anonymous": false,
      "inputs": [
        {
          "indexed": true,
          "internalType": "address",
          "name": "operator",
          "type": "address"
        }
      ],
      "name": "OperatorAdded",
      "type": "event"
    },
    {
      "anonymous": false,
      "inputs": [
        {
          "indexed": true,
          "internalType": "address",
          "name": "previousOwner",
          "type": "address"
        },
        {
          "indexed": true,
          "internalType": "address",
          "name": "newOwner",
          "type": "address"
        }
      ],
      "name": "OwnershipTransferred",
      "type": "event"
    },
    {
      "anonymous": false,
      "inputs": [
        {
          "indexed": false,
          "internalType": "address",
          "name": "account",
          "type": "address"
        }
      ],
      "name": "Paused",
      "type": "event"
    },
    {
      "anonymous": false,
      "inputs": [
        {
          "indexed": true,
          "internalType": "uint256",
          "name": "id",
          "type": "uint256"
        },
        {
          "indexed": true,
          "internalType": "address",
          "name": "recipient",
          "type": "address"
        },
        {
          "indexed": false,
          "internalType": "uint256",
          "name": "value",
          "type": "uint256"
        }
      ],
      "name": "RoyaltiesDefined",
      "type": "event"
    },
    {
      "anonymous": false,
      "inputs": [
        {
          "indexed": true,
          "internalType": "address",
          "name": "operator",
          "type": "address"
        },
        {
          "indexed": true,
          "internalType": "address",
          "name": "from",
          "type": "address"
        },
        {
          "indexed": true,
          "internalType": "address",
          "name": "to",
          "type": "address"
        },
        {
          "indexed": false,
          "internalType": "uint256[]",
          "name": "ids",
          "type": "uint256[]"
        },
        {
          "indexed": false,
          "internalType": "uint256[]",
          "name": "values",
          "type": "uint256[]"
        }
      ],
      "name": "TransferBatch",
      "type": "event"
    },
    {
      "anonymous": false,
      "inputs": [
        {
          "indexed": true,
          "internalType": "address",
          "name": "operator",
          "type": "address"
        },
        {
          "indexed": true,
          "internalType": "address",
          "name": "from",
          "type": "address"
        },
        {
          "indexed": true,
          "internalType": "address",
          "name": "to",
          "type": "address"
        },
        {
          "indexed": false,
          "internalType": "uint256",
          "name": "id",
          "type": "uint256"
        },
        {
          "indexed": false,
          "internalType": "uint256",
          "name": "value",
          "type": "uint256"
        }
      ],
      "name": "TransferSingle",
      "type": "event"
    },
    {
      "anonymous": false,
      "inputs": [
        {
          "indexed": false,
          "internalType": "string",
          "name": "value",
          "type": "string"
        },
        {
          "indexed": true,
          "internalType": "uint256",
          "name": "id",
          "type": "uint256"
        }
      ],
      "name": "URI",
      "type": "event"
    },
    {
      "anonymous": false,
      "inputs": [
        {
          "indexed": false,
          "internalType": "address",
          "name": "account",
          "type": "address"
        }
      ],
      "name": "Unpaused",
      "type": "event"
    },
    {
      "inputs": [
        {
          "internalType": "address[]",
          "name": "operators",
          "type": "address[]"
        }
      ],
      "name": "addOperators",
      "outputs": [],
      "stateMutability": "nonpayable",
      "type": "function"
    },
    {
      "inputs": [
        {
          "internalType": "address",
          "name": "account",
          "type": "address"
        },
        {
          "internalType": "uint256",
          "name": "id",
          "type": "uint256"
        }
      ],
      "name": "balanceOf",
      "outputs": [
        {
          "internalType": "uint256",
          "name": "",
          "type": "uint256"
        }
      ],
      "stateMutability": "view",
      "type": "function"
    },
    {
      "inputs": [
        {
          "internalType": "address[]",
          "name": "accounts",
          "type": "address[]"
        },
        {
          "internalType": "uint256[]",
          "name": "ids",
          "type": "uint256[]"
        }
      ],
      "name": "balanceOfBatch",
      "outputs": [
        {
          "internalType": "uint256[]",
          "name": "",
          "type": "uint256[]"
        }
      ],
      "stateMutability": "view",
      "type": "function"
    },
    {
      "inputs": [
        {
          "internalType": "address",
          "name": "owner",
          "type": "address"
        },
        {
          "internalType": "uint256",
          "name": "id",
          "type": "uint256"
        },
        {
          "internalType": "uint256",
          "name": "amount",
          "type": "uint256"
        }
      ],
      "name": "burn",
      "outputs": [],
      "stateMutability": "nonpayable",
      "type": "function"
    },
    {
      "inputs": [
        {
          "internalType": "address",
          "name": "owner",
          "type": "address"
        },
        {
          "internalType": "uint256[]",
          "name": "ids",
          "type": "uint256[]"
        },
        {
          "internalType": "uint256[]",
          "name": "amounts",
          "type": "uint256[]"
        }
      ],
      "name": "burnBatch",
      "outputs": [],
      "stateMutability": "nonpayable",
      "type": "function"
    },
    {
      "inputs": [],
      "name": "contractURI",
      "outputs": [
        {
          "internalType": "string",
          "name": "",
          "type": "string"
        }
      ],
      "stateMutability": "view",
      "type": "function"
    },
    {
      "inputs": [
        {
          "internalType": "uint256",
          "name": "id",
          "type": "uint256"
        }
      ],
      "name": "creator",
      "outputs": [
        {
          "internalType": "address",
          "name": "",
          "type": "address"
        }
      ],
      "stateMutability": "view",
      "type": "function"
    },
    {
      "inputs": [],
      "name": "currentId",
      "outputs": [
        {
          "internalType": "uint256",
          "name": "",
          "type": "uint256"
        }
      ],
      "stateMutability": "view",
      "type": "function"
    },
    {
      "inputs": [
        {
          "internalType": "string",
          "name": "uri",
          "type": "string"
        },
        {
          "internalType": "address",
          "name": "minter",
          "type": "address"
        },
        {
          "internalType": "string",
          "name": "contractURI_",
          "type": "string"
        },
        {
          "internalType": "address",
          "name": "proxyRegistryAddress_",
          "type": "address"
        }
      ],
      "name": "initialize",
      "outputs": [],
      "stateMutability": "nonpayable",
      "type": "function"
    },
    {
      "inputs": [
        {
          "internalType": "uint256",
          "name": "tokenId",
          "type": "uint256"
        },
        {
          "internalType": "address",
          "name": "owner",
          "type": "address"
        }
      ],
      "name": "interactiveConfURI",
      "outputs": [
        {
          "internalType": "string",
          "name": "",
          "type": "string"
        }
      ],
      "stateMutability": "view",
      "type": "function"
    },
    {
      "inputs": [
        {
          "internalType": "address",
          "name": "_owner",
          "type": "address"
        },
        {
          "internalType": "address",
          "name": "_operator",
          "type": "address"
        }
      ],
      "name": "isApprovedForAll",
      "outputs": [
        {
          "internalType": "bool",
          "name": "isOperator",
          "type": "bool"
        }
      ],
      "stateMutability": "view",
      "type": "function"
    },
    {
      "inputs": [
        {
          "internalType": "address",
          "name": "address_",
          "type": "address"
        }
      ],
      "name": "isOperator",
      "outputs": [
        {
          "internalType": "bool",
          "name": "",
          "type": "bool"
        }
      ],
      "stateMutability": "view",
      "type": "function"
    },
    {
      "inputs": [
        {
          "internalType": "uint256",
          "name": "supply",
          "type": "uint256"
        },
        {
          "internalType": "uint256",
          "name": "royalties",
          "type": "uint256"
        },
        {
          "internalType": "address",
          "name": "royaltiesRecipient",
          "type": "address"
        },
        {
          "internalType": "bytes",
          "name": "data",
          "type": "bytes"
        },
        {
          "internalType": "uint8",
          "name": "v",
          "type": "uint8"
        },
        {
          "internalType": "bytes32",
          "name": "r",
          "type": "bytes32"
        },
        {
          "internalType": "bytes32",
          "name": "s",
          "type": "bytes32"
        }
      ],
      "name": "mint",
      "outputs": [],
      "stateMutability": "nonpayable",
      "type": "function"
    },
    {
      "inputs": [
        {
          "internalType": "uint256",
          "name": "id",
          "type": "uint256"
        }
      ],
      "name": "minted",
      "outputs": [
        {
          "internalType": "bool",
          "name": "",
          "type": "bool"
        }
      ],
      "stateMutability": "view",
      "type": "function"
    },
    {
      "inputs": [],
      "name": "owner",
      "outputs": [
        {
          "internalType": "address",
          "name": "",
          "type": "address"
        }
      ],
      "stateMutability": "view",
      "type": "function"
    },
    {
      "inputs": [],
      "name": "pause",
      "outputs": [],
      "stateMutability": "nonpayable",
      "type": "function"
    },
    {
      "inputs": [],
      "name": "paused",
      "outputs": [
        {
          "internalType": "bool",
          "name": "",
          "type": "bool"
        }
      ],
      "stateMutability": "view",
      "type": "function"
    },
    {
      "inputs": [],
      "name": "postUpgrade",
      "outputs": [],
      "stateMutability": "nonpayable",
      "type": "function"
    },
    {
      "inputs": [
        {
          "internalType": "address",
          "name": "sender",
          "type": "address"
        },
        {
          "internalType": "bytes",
          "name": "data",
          "type": "bytes"
        }
      ],
      "name": "prepareMessage",
      "outputs": [
        {
          "internalType": "bytes32",
          "name": "",
          "type": "bytes32"
        }
      ],
      "stateMutability": "pure",
      "type": "function"
    },
    {
      "inputs": [],
      "name": "proxyRegistryAddress",
      "outputs": [
        {
          "internalType": "address",
          "name": "",
          "type": "address"
        }
      ],
      "stateMutability": "view",
      "type": "function"
    },
    {
      "inputs": [
        {
          "internalType": "bytes32",
          "name": "message",
          "type": "bytes32"
        },
        {
          "internalType": "uint8",
          "name": "v",
          "type": "uint8"
        },
        {
          "internalType": "bytes32",
          "name": "r",
          "type": "bytes32"
        },
        {
          "internalType": "bytes32",
          "name": "s",
          "type": "bytes32"
        }
      ],
      "name": "recoverSigner",
      "outputs": [
        {
          "internalType": "address",
          "name": "",
          "type": "address"
        }
      ],
      "stateMutability": "pure",
      "type": "function"
    },
    {
      "inputs": [
        {
          "internalType": "address[]",
          "name": "operators",
          "type": "address[]"
        }
      ],
      "name": "removeOperators",
      "outputs": [],
      "stateMutability": "nonpayable",
      "type": "function"
    },
    {
      "inputs": [],
      "name": "renounceOwnership",
      "outputs": [],
      "stateMutability": "nonpayable",
      "type": "function"
    },
    {
      "inputs": [
        {
          "internalType": "bytes32",
          "name": "message",
          "type": "bytes32"
        },
        {
          "internalType": "uint8",
          "name": "v",
          "type": "uint8"
        },
        {
          "internalType": "bytes32",
          "name": "r",
          "type": "bytes32"
        },
        {
          "internalType": "bytes32",
          "name": "s",
          "type": "bytes32"
        }
      ],
      "name": "requireOperatorSignature",
      "outputs": [],
      "stateMutability": "view",
      "type": "function"
    },
    {
      "inputs": [
        {
          "internalType": "uint256",
          "name": "tokenId",
          "type": "uint256"
        },
        {
          "internalType": "uint256",
          "name": "value",
          "type": "uint256"
        }
      ],
      "name": "royaltyInfo",
      "outputs": [
        {
          "internalType": "address",
          "name": "receiver",
          "type": "address"
        },
        {
          "internalType": "uint256",
          "name": "royaltyAmount",
          "type": "uint256"
        }
      ],
      "stateMutability": "view",
      "type": "function"
    },
    {
      "inputs": [
        {
          "internalType": "address",
          "name": "from",
          "type": "address"
        },
        {
          "internalType": "address",
          "name": "to",
          "type": "address"
        },
        {
          "internalType": "uint256[]",
          "name": "ids",
          "type": "uint256[]"
        },
        {
          "internalType": "uint256[]",
          "name": "amounts",
          "type": "uint256[]"
        },
        {
          "internalType": "bytes",
          "name": "data",
          "type": "bytes"
        }
      ],
      "name": "safeBatchTransferFrom",
      "outputs": [],
      "stateMutability": "nonpayable",
      "type": "function"
    },
    {
      "inputs": [
        {
          "internalType": "address",
          "name": "from",
          "type": "address"
        },
        {
          "internalType": "address[]",
          "name": "recipients",
          "type": "address[]"
        },
        {
          "internalType": "uint256",
          "name": "id",
          "type": "uint256"
        },
        {
          "internalType": "uint256[]",
          "name": "amounts",
          "type": "uint256[]"
        },
        {
          "internalType": "bytes",
          "name": "data",
          "type": "bytes"
        }
      ],
      "name": "safeBatchTransferIdFrom",
      "outputs": [],
      "stateMutability": "nonpayable",
      "type": "function"
    },
    {
      "inputs": [
        {
          "internalType": "address[]",
          "name": "artists",
          "type": "address[]"
        },
        {
          "internalType": "uint256[]",
          "name": "amounts",
          "type": "uint256[]"
        },
        {
          "internalType": "uint256[]",
          "name": "royalties",
          "type": "uint256[]"
        },
        {
          "internalType": "address",
          "name": "recipient",
          "type": "address"
        },
        {
          "internalType": "bytes",
          "name": "data",
          "type": "bytes"
        }
      ],
      "name": "safeMintBatchForArtistsAndTransfer",
      "outputs": [],
      "stateMutability": "nonpayable",
      "type": "function"
    },
    {
      "inputs": [
        {
          "internalType": "address",
          "name": "from",
          "type": "address"
        },
        {
          "internalType": "address",
          "name": "to",
          "type": "address"
        },
        {
          "internalType": "uint256",
          "name": "id",
          "type": "uint256"
        },
        {
          "internalType": "uint256",
          "name": "amount",
          "type": "uint256"
        },
        {
          "internalType": "bytes",
          "name": "data",
          "type": "bytes"
        }
      ],
      "name": "safeTransferFrom",
      "outputs": [],
      "stateMutability": "nonpayable",
      "type": "function"
    },
    {
      "inputs": [
        {
          "internalType": "address",
          "name": "operator",
          "type": "address"
        },
        {
          "internalType": "bool",
          "name": "approved",
          "type": "bool"
        }
      ],
      "name": "setApprovalForAll",
      "outputs": [],
      "stateMutability": "nonpayable",
      "type": "function"
    },
    {
      "inputs": [
        {
          "internalType": "string",
          "name": "newuri",
          "type": "string"
        }
      ],
      "name": "setBaseURI",
      "outputs": [],
      "stateMutability": "nonpayable",
      "type": "function"
    },
    {
      "inputs": [
        {
          "internalType": "string",
          "name": "contractURI_",
          "type": "string"
        }
      ],
      "name": "setContractURI",
      "outputs": [],
      "stateMutability": "nonpayable",
      "type": "function"
    },
    {
      "inputs": [
        {
          "internalType": "uint256",
          "name": "tokenId",
          "type": "uint256"
        },
        {
          "internalType": "address",
          "name": "owner_",
          "type": "address"
        },
        {
          "internalType": "string",
          "name": "interactiveConfURI_",
          "type": "string"
        }
      ],
      "name": "setInteractiveConfURI",
      "outputs": [],
      "stateMutability": "nonpayable",
      "type": "function"
    },
    {
      "inputs": [
        {
          "internalType": "bytes4",
          "name": "interfaceId",
          "type": "bytes4"
        }
      ],
      "name": "supportsInterface",
      "outputs": [
        {
          "internalType": "bool",
          "name": "",
          "type": "bool"
        }
      ],
      "stateMutability": "view",
      "type": "function"
    },
    {
      "inputs": [
        {
          "internalType": "address",
          "name": "newOwner",
          "type": "address"
        }
      ],
      "name": "transferOwnership",
      "outputs": [],
      "stateMutability": "nonpayable",
      "type": "function"
    },
    {
      "inputs": [],
      "name": "unpause",
      "outputs": [],
      "stateMutability": "nonpayable",
      "type": "function"
    },
    {
      "inputs": [
        {
          "internalType": "uint256",
          "name": "",
          "type": "uint256"
        }
      ],
      "name": "uri",
      "outputs": [
        {
          "internalType": "string",
          "name": "",
          "type": "string"
        }
      ],
      "stateMutability": "view",
      "type": "function"
    },
    {
      "stateMutability": "payable",
      "type": "receive"
    }
  ],
  "transactionHash": "0x6fa573c287404f52bce4af458a8752a49558e79bfb9c40e87c76b8cfc926fc94",
  "args": [],
  "solcInputHash": "122a5a2d6a4c3768a88b5cf64314cd4b",
  "bytecode": "0x608060405234801561001057600080fd5b50613d3c806100206000396000f3fe60806040526004361061021d5760003560e01c80637dc0bf3f11610123578063d365a377116100ab578063eeee9caf1161006f578063eeee9caf1461063f578063f242432a1461065f578063f2fde38b1461067f578063f5298aca1461069f578063f885ee9d146106bf57610243565b8063d365a377146105b5578063d45167d0146105d5578063e00dd161146105f5578063e8a3d4851461060a578063e985e9c51461061f57610243565b8063938e3d7b116100f2578063938e3d7b14610520578063995eedef14610540578063a07aea1c14610560578063a22cb46514610580578063cd7c0326146105a057610243565b80637dc0bf3f146104b65780638456cb59146104d65780638da5cb5b146104eb57806391f0c0e81461050057610243565b80634e1273f4116101a657806364c046b71161017557806364c046b7146104215780636b20c454146104415780636d70f7ae146104615780636e6174fe14610481578063715018a6146104a157610243565b80634e1273f414610392578063510b5158146103bf57806355f804b3146103ec5780635c975abb1461040c57610243565b80632a55205a116101ed5780632a55205a146102fa5780632b146fb3146103285780632c53bc64146103485780632eb2c2d61461035d5780633f4ba83a1461037d57610243565b8062fdd58e1461024857806301ffc9a71461027e5780630e89341c146102ab5780631ecfacee146102d857610243565b366102435760405162461bcd60e51b815260040161023a9061353f565b60405180910390fd5b600080fd5b34801561025457600080fd5b50610268610263366004612d79565b6106df565b60405161027591906133dc565b60405180910390f35b34801561028a57600080fd5b5061029e610299366004612f78565b610732565b60405161027591906133d1565b3480156102b757600080fd5b506102cb6102c6366004613085565b610754565b6040516102759190613432565b3480156102e457600080fd5b506102f86102f3366004612ffe565b6107e8565b005b34801561030657600080fd5b5061031a610315366004613144565b6108bf565b604051610275929190613377565b34801561033457600080fd5b506102f86103433660046130c1565b610932565b34801561035457600080fd5b506102f861098e565b34801561036957600080fd5b506102f8610378366004612b15565b6109d5565b34801561038957600080fd5b506102f8610c3e565b34801561039e57600080fd5b506103b26103ad366004612e46565b610c87565b6040516102759190613390565b3480156103cb57600080fd5b506103df6103da366004613085565b610da6565b604051610275919061329c565b3480156103f857600080fd5b506102f8610407366004612fcc565b610dc1565b34801561041857600080fd5b5061029e610e0c565b34801561042d57600080fd5b506102f861043c366004612f3e565b610e16565b34801561044d57600080fd5b506102f861045c366004612c89565b610e41565b34801561046d57600080fd5b5061029e61047c366004612aba565b610e9b565b34801561048d57600080fd5b506102f861049c366004612e9c565b610ebe565b3480156104ad57600080fd5b506102f8611072565b3480156104c257600080fd5b5061029e6104d1366004613085565b6110fb565b3480156104e257600080fd5b506102f8611118565b3480156104f757600080fd5b506103df61115f565b34801561050c57600080fd5b5061026861051b366004612d2c565b61116e565b34801561052c57600080fd5b506102f861053b366004612fcc565b6111a1565b34801561054c57600080fd5b506102cb61055b36600461309d565b6111f7565b34801561056c57600080fd5b506102f861057b366004612dd8565b6112ae565b34801561058c57600080fd5b506102f861059b366004612cfb565b611347565b3480156105ac57600080fd5b506103df611415565b3480156105c157600080fd5b506102f86105d0366004612dd8565b611425565b3480156105e157600080fd5b506103df6105f0366004612f3e565b6114e4565b34801561060157600080fd5b5061026861157f565b34801561061657600080fd5b506102cb611586565b34801561062b57600080fd5b5061029e61063a366004612add565b611618565b34801561064b57600080fd5b506102f861065a366004612c24565b6116f2565b34801561066b57600080fd5b506102f861067a366004612bbe565b61178c565b34801561068b57600080fd5b506102f861069a366004612aba565b611926565b3480156106ab57600080fd5b506102f86106ba366004612da4565b6119e7565b3480156106cb57600080fd5b506102f86106da366004613165565b611a3c565b60006001600160a01b0383166107075760405162461bcd60e51b815260040161023a9061356a565b50600081815260cb602090815260408083206001600160a01b03861684529091529020545b92915050565b600061073d82611af3565b8061074c575061074c82611b0c565b90505b919050565b606060cd805461076390613baf565b80601f016020809104026020016040519081016040528092919081815260200182805461078f90613baf565b80156107dc5780601f106107b1576101008083540402835291602001916107dc565b820191906000526020600020905b8154815290600101906020018083116107bf57829003601f168201915b50505050509050919050565b600054610100900460ff1680610801575060005460ff16155b61081d5760405162461bcd60e51b815260040161023a906137fd565b600054610100900460ff16158015610848576000805460ff1961ff0019909116610100171660011790555b610850611b4c565b610858611bc8565b61086185611c46565b61086a84611cc4565b82511561087a5761087a836111a1565b6001600160a01b038216156108a65761010080546001600160a01b0319166001600160a01b0384161790555b80156108b8576000805461ff00191690555b5050505050565b600082815260fe60209081526040808320815180830190925280546001600160a01b031680835260019091015492820192909252829161090657600080925092505061092b565b805160208201516127109061091b9087613b4d565b6109259190613b2d565b92509250505b9250929050565b61093a611d36565b6001600160a01b0316836001600160a01b0316148061096057506109608361063a611d36565b61097c5760405162461bcd60e51b815260040161023a9061369f565b61098884848484611d3a565b50505050565b610996611d36565b6001600160a01b03166109a761115f565b6001600160a01b0316146109cd5760405162461bcd60e51b815260040161023a9061390f565b600061010155565b81518351146109f65760405162461bcd60e51b815260040161023a90613a0d565b6001600160a01b038416610a1c5760405162461bcd60e51b815260040161023a90613766565b610a24611d36565b6001600160a01b0316856001600160a01b03161480610a4a5750610a4a8561063a611d36565b610a665760405162461bcd60e51b815260040161023a906137ab565b6000610a70611d36565b9050610a80818787878787610c36565b60005b8451811015610bd0576000858281518110610aae57634e487b7160e01b600052603260045260246000fd5b602002602001015190506000858381518110610ada57634e487b7160e01b600052603260045260246000fd5b602090810291909101810151600084815260cb835260408082206001600160a01b038e168352909352919091205490915081811015610b2b5760405162461bcd60e51b815260040161023a9061388e565b610b358282613b6c565b60cb600085815260200190815260200160002060008c6001600160a01b03166001600160a01b03168152602001908152602001600020819055508160cb600085815260200190815260200160002060008b6001600160a01b03166001600160a01b031681526020019081526020016000206000828254610bb59190613af0565b9250508190555050505080610bc990613bea565b9050610a83565b50846001600160a01b0316866001600160a01b0316826001600160a01b03167f4a39dc06d4c0dbc64b70af90fd698a233a518aa5d07e595d983b8c0526c8f7fb8787604051610c209291906133a3565b60405180910390a4610c36818787878787611db2565b505050505050565b610c46611d36565b6001600160a01b0316610c5761115f565b6001600160a01b031614610c7d5760405162461bcd60e51b815260040161023a9061390f565b610c85611ec0565b565b60608151835114610caa5760405162461bcd60e51b815260040161023a906139c4565b600083516001600160401b03811115610cd357634e487b7160e01b600052604160045260246000fd5b604051908082528060200260200182016040528015610cfc578160200160208202803683370190505b50905060005b8451811015610d9e57610d63858281518110610d2e57634e487b7160e01b600052603260045260246000fd5b6020026020010151858381518110610d5657634e487b7160e01b600052603260045260246000fd5b60200260200101516106df565b828281518110610d8357634e487b7160e01b600052603260045260246000fd5b6020908102919091010152610d9781613bea565b9050610d02565b509392505050565b600090815260fd60205260409020546001600160a01b031690565b610dc9611d36565b6001600160a01b0316610dda61115f565b6001600160a01b031614610e005760405162461bcd60e51b815260040161023a9061390f565b610e0981611f2e565b50565b60665460ff165b90565b610e2561047c858585856114e4565b6109885760405162461bcd60e51b815260040161023a90613676565b610e49611d36565b6001600160a01b0316836001600160a01b03161480610e6f5750610e6f8361063a611d36565b610e8b5760405162461bcd60e51b815260040161023a9061369f565b610e96838383611f41565b505050565b6001600160a01b031660009081526065602052604090205460ff16151560011490565b610ec6611d36565b6001600160a01b0316610ed761115f565b6001600160a01b031614610efd5760405162461bcd60e51b815260040161023a9061390f565b6101015415610f1e5760405162461bcd60e51b815260040161023a9061373f565b83518551148015610f30575082518551145b610f4c5760405162461bcd60e51b815260040161023a9061363f565b6002610101556101025460005b86518110156110605781610f6c81613bea565b92505061101982888381518110610f9357634e487b7160e01b600052603260045260246000fd5b6020026020010151888481518110610fbb57634e487b7160e01b600052603260045260246000fd5b60200260200101518a8581518110610fe357634e487b7160e01b600052603260045260246000fd5b602002602001015189868151811061100b57634e487b7160e01b600052603260045260246000fd5b602002602001015188612102565b61104e87828151811061103c57634e487b7160e01b600052603260045260246000fd5b6020026020010151858460018761178c565b8061105881613bea565b915050610f59565b50610102555050600161010155505050565b61107a611d36565b6001600160a01b031661108b61115f565b6001600160a01b0316146110b15760405162461bcd60e51b815260040161023a9061390f565b6033546040516000916001600160a01b0316907f8be0079c531659141344cd1fd0a4f28419497f9722a3daafe3b4186f6b6457e0908390a3603380546001600160a01b0319169055565b600090815260fd60205260409020546001600160a01b0316151590565b611120611d36565b6001600160a01b031661113161115f565b6001600160a01b0316146111575760405162461bcd60e51b815260040161023a9061390f565b610c85612178565b6033546001600160a01b031690565b60008282604051602001611183929190613353565b60405160208183030381529060405280519060200120905092915050565b6111a9611d36565b6001600160a01b03166111ba61115f565b6001600160a01b0316146111e05760405162461bcd60e51b815260040161023a9061390f565b80516111f39060ff906020840190612863565b5050565b60008281526098602090815260408083206001600160a01b0385168452909152902080546060919061122890613baf565b80601f016020809104026020016040519081016040528092919081815260200182805461125490613baf565b80156112a15780601f10611276576101008083540402835291602001916112a1565b820191906000526020600020905b81548152906001019060200180831161128457829003601f168201915b5050505050905092915050565b6112b6611d36565b6001600160a01b03166112c761115f565b6001600160a01b0316146112ed5760405162461bcd60e51b815260040161023a9061390f565b60005b81811015610e965761133583838381811061131b57634e487b7160e01b600052603260045260246000fd5b90506020020160208101906113309190612aba565b611cc4565b8061133f81613bea565b9150506112f0565b816001600160a01b0316611359611d36565b6001600160a01b031614156113805760405162461bcd60e51b815260040161023a9061397b565b8060cc600061138d611d36565b6001600160a01b03908116825260208083019390935260409182016000908120918716808252919093529120805460ff1916921515929092179091556113d1611d36565b6001600160a01b03167f17307eab39ab6107e8899845ad3d59bd9653f200f220920489ca2b5937696c318360405161140991906133d1565b60405180910390a35050565b610100546001600160a01b031681565b61142d611d36565b6001600160a01b031661143e61115f565b6001600160a01b0316146114645760405162461bcd60e51b815260040161023a9061390f565b60005b81811015610e965760006065600085858581811061149557634e487b7160e01b600052603260045260246000fd5b90506020020160208101906114aa9190612aba565b6001600160a01b031681526020810191909152604001600020805460ff1916911515919091179055806114dc81613bea565b915050611467565b6000601b8460ff161015611500576114fd601b85613b08565b93505b600185604051602001611513919061326b565b604051602081830303815290604052805190602001208585856040516000815260200160405260405161154994939291906133e5565b6020604051602081039080840390855afa15801561156b573d6000803e3d6000fd5b5050604051601f1901519695505050505050565b6101025481565b606060ff805461159590613baf565b80601f01602080910402602001604051908101604052809291908181526020018280546115c190613baf565b801561160e5780601f106115e35761010080835404028352916020019161160e565b820191906000526020600020905b8154815290600101906020018083116115f157829003601f168201915b5050505050905090565b6000610101546002141561162e5750600161072c565b610100546001600160a01b031680156116e05760405163c455279160e01b815281906001600160a01b03808616919083169063c45527919061167490899060040161329c565b60206040518083038186803b15801561168c57600080fd5b505afa1580156116a0573d6000803e3d6000fd5b505050506040513d601f19601f820116820180604052508101906116c49190612fb0565b6001600160a01b031614156116de5760019250505061072c565b505b6116ea84846121d3565b949350505050565b81518451146117135760405162461bcd60e51b815260040161023a9061363f565b60005b8451811015610c365761177a8686838151811061174357634e487b7160e01b600052603260045260246000fd5b60200260200101518686858151811061176c57634e487b7160e01b600052603260045260246000fd5b60200260200101518661178c565b8061178481613bea565b915050611716565b6001600160a01b0384166117b25760405162461bcd60e51b815260040161023a90613766565b6117ba611d36565b6001600160a01b0316856001600160a01b031614806117e057506117e08561063a611d36565b6117fc5760405162461bcd60e51b815260040161023a9061369f565b6000611806611d36565b905061182681878761181788612201565b61182088612201565b87610c36565b600084815260cb602090815260408083206001600160a01b038a168452909152902054838110156118695760405162461bcd60e51b815260040161023a9061388e565b6118738482613b6c565b600086815260cb602090815260408083206001600160a01b038c811685529252808320939093558816815290812080548692906118b1908490613af0565b92505081905550856001600160a01b0316876001600160a01b0316836001600160a01b03167fc3d58168c5ae7397731d063d5bbf3d657854427343f4c083240f7aacaa2d0f628888604051611907929190613a96565b60405180910390a461191d82888888888861225a565b50505050505050565b61192e611d36565b6001600160a01b031661193f61115f565b6001600160a01b0316146119655760405162461bcd60e51b815260040161023a9061390f565b6001600160a01b03811661198b5760405162461bcd60e51b815260040161023a906135b5565b6033546040516001600160a01b038084169216907f8be0079c531659141344cd1fd0a4f28419497f9722a3daafe3b4186f6b6457e090600090a3603380546001600160a01b0319166001600160a01b0392909216919091179055565b6119ef611d36565b6001600160a01b0316836001600160a01b03161480611a155750611a158361063a611d36565b611a315760405162461bcd60e51b815260040161023a9061369f565b610e9683838361232b565b611a44610e0c565b15611a615760405162461bcd60e51b815260040161023a90613715565b6000611a6d338661116e565b9050611a7b81858585610e16565b6000818152610103602052604090205460ff1615611aab5760405162461bcd60e51b815260040161023a906138d8565b600081815261010360205260408120805460ff1916600190811790915561010254611ad591613af0565b9050611ae581338b8a8c8b612102565b610102555050505050505050565b6001600160e01b0319811663152a902d60e11b14919050565b60006001600160e01b03198216636cdb3d1360e11b1480611b3d57506001600160e01b031982166303a24d0760e21b145b8061074c575061074c82612448565b600054610100900460ff1680611b65575060005460ff16155b611b815760405162461bcd60e51b815260040161023a906137fd565b600054610100900460ff16158015611bac576000805460ff1961ff0019909116610100171660011790555b611bb4612461565b8015610e09576000805461ff001916905550565b600054610100900460ff1680611be1575060005460ff16155b611bfd5760405162461bcd60e51b815260040161023a906137fd565b600054610100900460ff16158015611c28576000805460ff1961ff0019909116610100171660011790555b6066805460ff191690558015610e09576000805461ff001916905550565b600054610100900460ff1680611c5f575060005460ff16155b611c7b5760405162461bcd60e51b815260040161023a906137fd565b600054610100900460ff16158015611ca6576000805460ff1961ff0019909116610100171660011790555b611caf826124d1565b80156111f3576000805461ff00191690555050565b6001600160a01b038116611cea5760405162461bcd60e51b815260040161023a9061350f565b6001600160a01b038116600081815260656020526040808220805460ff19166001179055517fac6fa858e9350a46cec16539926e0fde25b7629f84b5a72bffaae4df888ae86d9190a250565b3390565b60008481526098602090815260408083206001600160a01b03871684529091529020611d679083836128e7565b50826001600160a01b0316847f9510e529f90f89b8e0d0478bc302a5469d8d14ffb7109ac85028e48f36c44bee8484604051611da4929190613403565b60405180910390a350505050565b611dc4846001600160a01b031661253a565b15610c365760405163bc197c8160e01b81526001600160a01b0385169063bc197c8190611dfd90899089908890889088906004016132b0565b602060405180830381600087803b158015611e1757600080fd5b505af1925050508015611e47575060408051601f3d908101601f19168201909252611e4491810190612f94565b60015b611e9057611e53613c37565b80611e5e5750611e78565b8060405162461bcd60e51b815260040161023a9190613432565b60405162461bcd60e51b815260040161023a90613445565b6001600160e01b0319811663bc197c8160e01b1461191d5760405162461bcd60e51b815260040161023a90613499565b611ec8610e0c565b611ee45760405162461bcd60e51b815260040161023a906134e1565b6066805460ff191690557f5db9ee0a495bf2e6ff9c91a7834c1ba4fdd244a5e8aa4e537bd38aeae4b073aa611f17611d36565b604051611f24919061329c565b60405180910390a1565b80516111f39060cd906020840190612863565b6001600160a01b038316611f675760405162461bcd60e51b815260040161023a9061384b565b8051825114611f885760405162461bcd60e51b815260040161023a90613a0d565b6000611f92611d36565b9050611fb281856000868660405180602001604052806000815250610c36565b60005b83518110156120a3576000848281518110611fe057634e487b7160e01b600052603260045260246000fd5b60200260200101519050600084838151811061200c57634e487b7160e01b600052603260045260246000fd5b602090810291909101810151600084815260cb835260408082206001600160a01b038c16835290935291909120549091508181101561205d5760405162461bcd60e51b815260040161023a906135fb565b6120678282613b6c565b600093845260cb602090815260408086206001600160a01b038c168752909152909320929092555081905061209b81613bea565b915050611fb5565b5060006001600160a01b0316846001600160a01b0316826001600160a01b03167f4a39dc06d4c0dbc64b70af90fd698a233a518aa5d07e595d983b8c0526c8f7fb86866040516120f49291906133a3565b60405180910390a450505050565b61210e85878684612540565b6121188686612622565b811561212957612129868484612650565b805115610c36578060405161213e919061324f565b6040519081900381209087907ffe1509eb3817472ff35ecb79584292f0370b355967f797c0865cbff15e52d31390600090a3505050505050565b612180610e0c565b1561219d5760405162461bcd60e51b815260040161023a90613715565b6066805460ff191660011790557f62e78cea01bee320cd4e420270b5ea74000d11b0c9f74754ebdbfc544b05a258611f17611d36565b6001600160a01b03918216600090815260cc6020908152604080832093909416825291909152205460ff1690565b6040805160018082528183019092526060916000919060208083019080368337019050509050828160008151811061224957634e487b7160e01b600052603260045260246000fd5b602090810291909101015292915050565b61226c846001600160a01b031661253a565b15610c365760405163f23a6e6160e01b81526001600160a01b0385169063f23a6e61906122a5908990899088908890889060040161330e565b602060405180830381600087803b1580156122bf57600080fd5b505af19250505080156122ef575060408051601f3d908101601f191682019092526122ec91810190612f94565b60015b6122fb57611e53613c37565b6001600160e01b0319811663f23a6e6160e01b1461191d5760405162461bcd60e51b815260040161023a90613499565b6001600160a01b0383166123515760405162461bcd60e51b815260040161023a9061384b565b600061235b611d36565b905061238b8185600061236d87612201565b61237687612201565b60405180602001604052806000815250610c36565b600083815260cb602090815260408083206001600160a01b0388168452909152902054828110156123ce5760405162461bcd60e51b815260040161023a906135fb565b6123d88382613b6c565b600085815260cb602090815260408083206001600160a01b03808b16808652919093528184209490945551919291908516907fc3d58168c5ae7397731d063d5bbf3d657854427343f4c083240f7aacaa2d0f62906124399089908990613a96565b60405180910390a45050505050565b6001600160e01b031981166301ffc9a760e01b14919050565b600054610100900460ff168061247a575060005460ff16155b6124965760405162461bcd60e51b815260040161023a906137fd565b600054610100900460ff161580156124c1576000805460ff1961ff0019909116610100171660011790555b6124c9612724565b611bb4612797565b600054610100900460ff16806124ea575060005460ff16155b6125065760405162461bcd60e51b815260040161023a906137fd565b600054610100900460ff16158015612531576000805460ff1961ff0019909116610100171660011790555b611caf82611f2e565b3b151590565b6001600160a01b0384166125665760405162461bcd60e51b815260040161023a90613a55565b6000612570611d36565b90506125828160008761181788612201565b600084815260cb602090815260408083206001600160a01b0389168452909152812080548592906125b4908490613af0565b92505081905550846001600160a01b031660006001600160a01b0316826001600160a01b03167fc3d58168c5ae7397731d063d5bbf3d657854427343f4c083240f7aacaa2d0f62878760405161260b929190613a96565b60405180910390a46108b88160008787878761225a565b600091825260fd602052604090912080546001600160a01b0319166001600160a01b03909216919091179055565b6001600160a01b0382166126765760405162461bcd60e51b815260040161023a90613944565b6127108111156126985760405162461bcd60e51b815260040161023a906136e8565b6040805180820182526001600160a01b038481168083526020808401868152600089815260fe90925290859020935184546001600160a01b03191693169290921783559051600190920191909155905184907f48088c08557ca46900507e5992528d0b09f68ff628983baa175716d6bcf7e4c3906127179085906133dc565b60405180910390a3505050565b600054610100900460ff168061273d575060005460ff16155b6127595760405162461bcd60e51b815260040161023a906137fd565b600054610100900460ff16158015611bb4576000805460ff1961ff0019909116610100171660011790558015610e09576000805461ff001916905550565b600054610100900460ff16806127b0575060005460ff16155b6127cc5760405162461bcd60e51b815260040161023a906137fd565b600054610100900460ff161580156127f7576000805460ff1961ff0019909116610100171660011790555b6000612801611d36565b603380546001600160a01b0319166001600160a01b038316908117909155604051919250906000907f8be0079c531659141344cd1fd0a4f28419497f9722a3daafe3b4186f6b6457e0908290a3508015610e09576000805461ff001916905550565b82805461286f90613baf565b90600052602060002090601f01602090048101928261289157600085556128d7565b82601f106128aa57805160ff19168380011785556128d7565b828001600101855582156128d7579182015b828111156128d75782518255916020019190600101906128bc565b506128e392915061295b565b5090565b8280546128f390613baf565b90600052602060002090601f01602090048101928261291557600085556128d7565b82601f1061292e5782800160ff198235161785556128d7565b828001600101855582156128d7579182015b828111156128d7578235825591602001919060010190612940565b5b808211156128e3576000815560010161295c565b600082601f830112612980578081fd5b8135602061299561299083613acd565b613aa4565b82815281810190858301838502870184018810156129b1578586fd5b855b858110156129d85781356129c681613cdb565b845292840192908401906001016129b3565b5090979650505050505050565b600082601f8301126129f5578081fd5b81356020612a0561299083613acd565b8281528181019085830183850287018401881015612a21578586fd5b855b858110156129d857813584529284019290840190600101612a23565b600082601f830112612a4f578081fd5b81356001600160401b03811115612a6857612a68613c1b565b612a7b601f8201601f1916602001613aa4565b818152846020838601011115612a8f578283fd5b816020850160208301379081016020019190915292915050565b803560ff8116811461074f57600080fd5b600060208284031215612acb578081fd5b8135612ad681613cdb565b9392505050565b60008060408385031215612aef578081fd5b8235612afa81613cdb565b91506020830135612b0a81613cdb565b809150509250929050565b600080600080600060a08688031215612b2c578081fd5b8535612b3781613cdb565b94506020860135612b4781613cdb565b935060408601356001600160401b0380821115612b62578283fd5b612b6e89838a016129e5565b94506060880135915080821115612b83578283fd5b612b8f89838a016129e5565b93506080880135915080821115612ba4578283fd5b50612bb188828901612a3f565b9150509295509295909350565b600080600080600060a08688031215612bd5578081fd5b8535612be081613cdb565b94506020860135612bf081613cdb565b9350604086013592506060860135915060808601356001600160401b03811115612c18578182fd5b612bb188828901612a3f565b600080600080600060a08688031215612c3b578081fd5b8535612c4681613cdb565b945060208601356001600160401b0380821115612c61578283fd5b612c6d89838a01612970565b9550604088013594506060880135915080821115612b83578283fd5b600080600060608486031215612c9d578081fd5b8335612ca881613cdb565b925060208401356001600160401b0380821115612cc3578283fd5b612ccf878388016129e5565b93506040860135915080821115612ce4578283fd5b50612cf1868287016129e5565b9150509250925092565b60008060408385031215612d0d578182fd5b8235612d1881613cdb565b915060208301358015158114612b0a578182fd5b60008060408385031215612d3e578182fd5b8235612d4981613cdb565b915060208301356001600160401b03811115612d63578182fd5b612d6f85828601612a3f565b9150509250929050565b60008060408385031215612d8b578182fd5b8235612d9681613cdb565b946020939093013593505050565b600080600060608486031215612db8578081fd5b8335612dc381613cdb565b95602085013595506040909401359392505050565b60008060208385031215612dea578182fd5b82356001600160401b0380821115612e00578384fd5b818501915085601f830112612e13578384fd5b813581811115612e21578485fd5b8660208083028501011115612e34578485fd5b60209290920196919550909350505050565b60008060408385031215612e58578182fd5b82356001600160401b0380821115612e6e578384fd5b612e7a86838701612970565b93506020850135915080821115612e8f578283fd5b50612d6f858286016129e5565b600080600080600060a08688031215612eb3578283fd5b85356001600160401b0380821115612ec9578485fd5b612ed589838a01612970565b96506020880135915080821115612eea578485fd5b612ef689838a016129e5565b95506040880135915080821115612f0b578485fd5b612f1789838a016129e5565b945060608801359150612f2982613cdb565b90925060808701359080821115612ba4578283fd5b60008060008060808587031215612f53578182fd5b84359350612f6360208601612aa9565b93969395505050506040820135916060013590565b600060208284031215612f89578081fd5b8135612ad681613cf0565b600060208284031215612fa5578081fd5b8151612ad681613cf0565b600060208284031215612fc1578081fd5b8151612ad681613cdb565b600060208284031215612fdd578081fd5b81356001600160401b03811115612ff2578182fd5b6116ea84828501612a3f565b60008060008060808587031215613013578182fd5b84356001600160401b0380821115613029578384fd5b61303588838901612a3f565b95506020870135915061304782613cdb565b9093506040860135908082111561305c578384fd5b5061306987828801612a3f565b925050606085013561307a81613cdb565b939692955090935050565b600060208284031215613096578081fd5b5035919050565b600080604083850312156130af578182fd5b823591506020830135612b0a81613cdb565b600080600080606085870312156130d6578182fd5b8435935060208501356130e881613cdb565b925060408501356001600160401b0380821115613103578384fd5b818701915087601f830112613116578384fd5b813581811115613124578485fd5b886020828501011115613135578485fd5b95989497505060200194505050565b60008060408385031215613156578182fd5b50508035926020909101359150565b600080600080600080600060e0888a03121561317f578485fd5b8735965060208801359550604088013561319881613cdb565b945060608801356001600160401b038111156131b2578283fd5b6131be8a828b01612a3f565b9450506131cd60808901612aa9565b925060a0880135915060c0880135905092959891949750929550565b6000815180845260208085019450808401835b83811015613218578151875295820195908201906001016131fc565b509495945050505050565b6000815180845261323b816020860160208601613b83565b601f01601f19169290920160200192915050565b60008251613261818460208701613b83565b9190910192915050565b7f19457468657265756d205369676e6564204d6573736167653a0a3332000000008152601c810191909152603c0190565b6001600160a01b0391909116815260200190565b6001600160a01b0386811682528516602082015260a0604082018190526000906132dc908301866131e9565b82810360608401526132ee81866131e9565b905082810360808401526133028185613223565b98975050505050505050565b6001600160a01b03868116825285166020820152604081018490526060810183905260a06080820181905260009061334890830184613223565b979650505050505050565b6001600160a01b03831681526040602082018190526000906116ea90830184613223565b6001600160a01b03929092168252602082015260400190565b600060208252612ad660208301846131e9565b6000604082526133b660408301856131e9565b82810360208401526133c881856131e9565b95945050505050565b901515815260200190565b90815260200190565b93845260ff9290921660208401526040830152606082015260800190565b60006020825282602083015282846040840137818301604090810191909152601f909201601f19160101919050565b600060208252612ad66020830184613223565b60208082526034908201527f455243313135353a207472616e7366657220746f206e6f6e20455243313135356040820152732932b1b2b4bb32b91034b6b83632b6b2b73a32b960611b606082015260800190565b60208082526028908201527f455243313135353a204552433131353552656365697665722072656a656374656040820152676420746f6b656e7360c01b606082015260800190565b60208082526014908201527314185d5cd8589b194e881b9bdd081c185d5cd95960621b604082015260600190565b6020808252601690820152752937b6329d1034b73b30b634b21027b832b930ba37b960511b604082015260600190565b602080825260119082015270139bc81d985b1d59481858d8d95c1d1959607a1b604082015260600190565b6020808252602b908201527f455243313135353a2062616c616e636520717565727920666f7220746865207a60408201526a65726f206164647265737360a81b606082015260800190565b60208082526026908201527f4f776e61626c653a206e6577206f776e657220697320746865207a65726f206160408201526564647265737360d01b606082015260800190565b60208082526024908201527f455243313135353a206275726e20616d6f756e7420657863656564732062616c604082015263616e636560e01b606082015260800190565b60208082526018908201527f455243313135353a206c656e677468206d69736d617463680000000000000000604082015260600190565b6020808252600f908201526e57726f6e67205369676e617475726560881b604082015260600190565b60208082526029908201527f455243313135353a2063616c6c6572206973206e6f74206f776e6572206e6f7260408201526808185c1c1c9bdd995960ba1b606082015260800190565b6020808252601390820152720a4def2c2d8e8d2cae67440a8dede40d0d2ced606b1b604082015260600190565b60208082526010908201526f14185d5cd8589b194e881c185d5cd95960821b604082015260600190565b6020808252600d908201526c20b63932b0b23c903ab9b2b21760991b604082015260600190565b60208082526025908201527f455243313135353a207472616e7366657220746f20746865207a65726f206164604082015264647265737360d81b606082015260800190565b60208082526032908201527f455243313135353a207472616e736665722063616c6c6572206973206e6f74206040820152711bdddb995c881b9bdc88185c1c1c9bdd995960721b606082015260800190565b6020808252602e908201527f496e697469616c697a61626c653a20636f6e747261637420697320616c72656160408201526d191e481a5b9a5d1a585b1a5e995960921b606082015260800190565b60208082526023908201527f455243313135353a206275726e2066726f6d20746865207a65726f206164647260408201526265737360e81b606082015260800190565b6020808252602a908201527f455243313135353a20696e73756666696369656e742062616c616e636520666f60408201526939103a3930b739b332b960b11b606082015260800190565b60208082526017908201527f455243313135353a20416c7265616479206d696e746564000000000000000000604082015260600190565b6020808252818101527f4f776e61626c653a2063616c6c6572206973206e6f7420746865206f776e6572604082015260600190565b6020808252601c908201527f526f79616c746965733a20496e76616c696420726563697069656e7400000000604082015260600190565b60208082526029908201527f455243313135353a2073657474696e6720617070726f76616c20737461747573604082015268103337b91039b2b63360b91b606082015260800190565b60208082526029908201527f455243313135353a206163636f756e747320616e6420696473206c656e677468604082015268040dad2e6dac2e8c6d60bb1b606082015260800190565b60208082526028908201527f455243313135353a2069647320616e6420616d6f756e7473206c656e677468206040820152670dad2e6dac2e8c6d60c31b606082015260800190565b60208082526021908201527f455243313135353a206d696e7420746f20746865207a65726f206164647265736040820152607360f81b606082015260800190565b918252602082015260400190565b6040518181016001600160401b0381118282101715613ac557613ac5613c1b565b604052919050565b60006001600160401b03821115613ae657613ae6613c1b565b5060209081020190565b60008219821115613b0357613b03613c05565b500190565b600060ff821660ff84168060ff03821115613b2557613b25613c05565b019392505050565b600082613b4857634e487b7160e01b81526012600452602481fd5b500490565b6000816000190483118215151615613b6757613b67613c05565b500290565b600082821015613b7e57613b7e613c05565b500390565b60005b83811015613b9e578181015183820152602001613b86565b838111156109885750506000910152565b600281046001821680613bc357607f821691505b60208210811415613be457634e487b7160e01b600052602260045260246000fd5b50919050565b6000600019821415613bfe57613bfe613c05565b5060010190565b634e487b7160e01b600052601160045260246000fd5b634e487b7160e01b600052604160045260246000fd5b60e01c90565b600060443d1015613c4757610e13565b600481823e6308c379a0613c5b8251613c31565b14613c6557610e13565b6040513d600319016004823e80513d6001600160401b038160248401118184111715613c945750505050610e13565b82840192508251915080821115613cae5750505050610e13565b503d83016020828401011115613cc657505050610e13565b601f01601f1916810160200160405291505090565b6001600160a01b0381168114610e0957600080fd5b6001600160e01b031981168114610e0957600080fdfea2646970667358221220635f68b7dcf3c5c7eb2711bd305b1db15e167bab7a4dfc9eabed81cc7c01f01d64736f6c63430008000033",
  "devdoc": {
    "kind": "dev",
    "methods": {
      "balanceOf(address,uint256)": {
        "details": "See {IERC1155-balanceOf}. Requirements: - `account` cannot be the zero address."
      },
      "balanceOfBatch(address[],uint256[])": {
        "details": "See {IERC1155-balanceOfBatch}. Requirements: - `accounts` and `ids` must have the same length."
      },
      "creator(uint256)": {
        "details": "returns `id`'s creator"
      },
      "mint(uint256,uint256,address,bytes,uint8,bytes32,bytes32)": {
        "details": "Minting function - With royalties Requirements: - An  Operator must have signed (msg.sender, data), which allows to link the mint to our off-chain data and to prove that the user has the right to mint"
      },
      "minted(uint256)": {
        "details": "Method to know if a token has already been minted or not"
      },
      "owner()": {
        "details": "Returns the address of the current owner."
      },
      "pause()": {
        "details": "Pauses all token creation. Requirements: - the caller must have the `DEFAULT_ADMIN_ROLE`."
      },
      "paused()": {
        "details": "Returns true if the contract is paused, and false otherwise."
      },
      "postUpgrade()": {
        "details": "Post Upgrade, called after an upgrade of the contract"
      },
      "renounceOwnership()": {
        "details": "Leaves the contract without owner. It will not be possible to call `onlyOwner` functions anymore. Can only be called by the current owner. NOTE: Renouncing ownership will leave the contract without an owner, thereby removing any functionality that is only available to the owner."
      },
      "requireOperatorSignature(bytes32,uint8,bytes32,bytes32)": {
        "details": "Verify that mint was aknowledge by an operator"
      },
      "royaltyInfo(uint256,uint256)": {
        "details": "Returns an NFTs royalty payment information",
        "params": {
          "tokenId": "The identifier for an NFT",
          "value": "Purchase price of NFT"
        },
        "returns": {
          "receiver": "The royalty recipient address",
          "royaltyAmount": "Amount to be paid to the royalty recipient"
        }
      },
      "safeBatchTransferFrom(address,address,uint256[],uint256[],bytes)": {
        "details": "See {IERC1155-safeBatchTransferFrom}."
      },
      "safeBatchTransferIdFrom(address,address[],uint256,uint256[],bytes)": {
        "details": "allows to transfer one id to several recipient with corresponding amounts"
      },
      "safeMintBatchForArtistsAndTransfer(address[],uint256[],uint256[],address,bytes)": {
        "details": "allows to create Batch NFTs and to send part of those to some recipient This function is a ONE TIME USE per upgrade Use cases are \"Giveaways\" and things like this."
      },
      "safeTransferFrom(address,address,uint256,uint256,bytes)": {
        "details": "See {IERC1155-safeTransferFrom}."
      },
      "setApprovalForAll(address,bool)": {
        "details": "See {IERC1155-setApprovalForAll}."
      },
      "supportsInterface(bytes4)": {
        "details": "See {IERC165-supportsInterface}."
      },
      "transferOwnership(address)": {
        "details": "Transfers ownership of the contract to a new account (`newOwner`). Can only be called by the current owner."
      },
      "unpause()": {
        "details": "Unpauses all token creation. Requirements: - the caller must have the `DEFAULT_ADMIN_ROLE`."
      },
      "uri(uint256)": {
        "details": "See {IERC1155MetadataURI-uri}. This implementation returns the same URI for *all* token types. It relies on the token type ID substitution mechanism https://eips.ethereum.org/EIPS/eip-1155#metadata[defined in the EIP]. Clients calling this function must replace the `\\{id\\}` substring with the actual token type ID."
      }
    },
    "version": 1
  },
  "userdoc": {
    "kind": "user",
    "methods": {
      "interactiveConfURI(uint256,address)": {
        "notice": "Configuration uri for tokenId"
      },
      "isApprovedForAll(address,address)": {
        "notice": "Override isApprovedForAll to whitelist user's OpenSea proxy accounts to enable gas-free listings."
      },
      "setBaseURI(string)": {
        "notice": "Function to let Owner set the baseURI"
      },
      "setInteractiveConfURI(uint256,address,string)": {
        "notice": "Function to let Owner set configurationURI"
      }
    },
    "version": 1
  },
  "storageLayout": {
    "storage": [
      {
        "astId": 136,
        "contract": "contracts/EditionsRegistry.sol:EditionsRegistry",
        "label": "_initialized",
        "offset": 0,
        "slot": "0",
        "type": "t_bool"
      },
      {
        "astId": 139,
        "contract": "contracts/EditionsRegistry.sol:EditionsRegistry",
        "label": "_initializing",
        "offset": 1,
        "slot": "0",
        "type": "t_bool"
      },
      {
        "astId": 1873,
        "contract": "contracts/EditionsRegistry.sol:EditionsRegistry",
        "label": "__gap",
        "offset": 0,
        "slot": "1",
        "type": "t_array(t_uint256)50_storage"
      },
      {
        "astId": 10,
        "contract": "contracts/EditionsRegistry.sol:EditionsRegistry",
        "label": "_owner",
        "offset": 0,
        "slot": "51",
        "type": "t_address"
      },
      {
        "astId": 129,
        "contract": "contracts/EditionsRegistry.sol:EditionsRegistry",
        "label": "__gap",
        "offset": 0,
        "slot": "52",
        "type": "t_array(t_uint256)49_storage"
      },
      {
        "astId": 5111,
        "contract": "contracts/EditionsRegistry.sol:EditionsRegistry",
        "label": "_operators",
        "offset": 0,
        "slot": "101",
        "type": "t_mapping(t_address,t_bool)"
      },
      {
        "astId": 197,
        "contract": "contracts/EditionsRegistry.sol:EditionsRegistry",
        "label": "_paused",
        "offset": 0,
        "slot": "102",
        "type": "t_bool"
      },
      {
        "astId": 288,
        "contract": "contracts/EditionsRegistry.sol:EditionsRegistry",
        "label": "__gap",
        "offset": 0,
        "slot": "103",
        "type": "t_array(t_uint256)49_storage"
      },
      {
        "astId": 7962,
        "contract": "contracts/EditionsRegistry.sol:EditionsRegistry",
        "label": "_interactiveConfURIs",
        "offset": 0,
        "slot": "152",
        "type": "t_mapping(t_uint256,t_mapping(t_address,t_string_storage))"
      },
      {
        "astId": 1919,
        "contract": "contracts/EditionsRegistry.sol:EditionsRegistry",
        "label": "__gap",
        "offset": 0,
        "slot": "153",
        "type": "t_array(t_uint256)50_storage"
      },
      {
        "astId": 376,
        "contract": "contracts/EditionsRegistry.sol:EditionsRegistry",
        "label": "_balances",
        "offset": 0,
        "slot": "203",
        "type": "t_mapping(t_uint256,t_mapping(t_address,t_uint256))"
      },
      {
        "astId": 382,
        "contract": "contracts/EditionsRegistry.sol:EditionsRegistry",
        "label": "_operatorApprovals",
        "offset": 0,
        "slot": "204",
        "type": "t_mapping(t_address,t_mapping(t_address,t_bool))"
      },
      {
        "astId": 384,
        "contract": "contracts/EditionsRegistry.sol:EditionsRegistry",
        "label": "_uri",
        "offset": 0,
        "slot": "205",
        "type": "t_string_storage"
      },
      {
        "astId": 1406,
        "contract": "contracts/EditionsRegistry.sol:EditionsRegistry",
        "label": "__gap",
        "offset": 0,
        "slot": "206",
        "type": "t_array(t_uint256)47_storage"
      },
      {
        "astId": 8013,
        "contract": "contracts/EditionsRegistry.sol:EditionsRegistry",
        "label": "_creators",
        "offset": 0,
        "slot": "253",
        "type": "t_mapping(t_uint256,t_address)"
      },
      {
        "astId": 8095,
        "contract": "contracts/EditionsRegistry.sol:EditionsRegistry",
        "label": "_royalties",
        "offset": 0,
        "slot": "254",
        "type": "t_mapping(t_uint256,t_struct(Royalty)8090_storage)"
      },
      {
        "astId": 5941,
        "contract": "contracts/EditionsRegistry.sol:EditionsRegistry",
        "label": "_contractURI",
        "offset": 0,
        "slot": "255",
        "type": "t_string_storage"
      },
      {
        "astId": 5943,
        "contract": "contracts/EditionsRegistry.sol:EditionsRegistry",
        "label": "proxyRegistryAddress",
        "offset": 0,
        "slot": "256",
        "type": "t_address"
      },
      {
        "astId": 5926,
        "contract": "contracts/EditionsRegistry.sol:EditionsRegistry",
        "label": "_safeMintBatchForArtistsAndTransferFlag",
        "offset": 0,
        "slot": "257",
        "type": "t_uint256"
      },
      {
        "astId": 5928,
        "contract": "contracts/EditionsRegistry.sol:EditionsRegistry",
        "label": "currentId",
        "offset": 0,
        "slot": "258",
        "type": "t_uint256"
      },
      {
        "astId": 5932,
        "contract": "contracts/EditionsRegistry.sol:EditionsRegistry",
        "label": "alreadyMinted",
        "offset": 0,
        "slot": "259",
        "type": "t_mapping(t_bytes32,t_bool)"
      }
    ],
    "types": {
      "t_address": {
        "encoding": "inplace",
        "label": "address",
        "numberOfBytes": "20"
      },
      "t_array(t_uint256)47_storage": {
        "base": "t_uint256",
        "encoding": "inplace",
        "label": "uint256[47]",
        "numberOfBytes": "1504"
      },
      "t_array(t_uint256)49_storage": {
        "base": "t_uint256",
        "encoding": "inplace",
        "label": "uint256[49]",
        "numberOfBytes": "1568"
      },
      "t_array(t_uint256)50_storage": {
        "base": "t_uint256",
        "encoding": "inplace",
        "label": "uint256[50]",
        "numberOfBytes": "1600"
      },
      "t_bool": {
        "encoding": "inplace",
        "label": "bool",
        "numberOfBytes": "1"
      },
      "t_bytes32": {
        "encoding": "inplace",
        "label": "bytes32",
        "numberOfBytes": "32"
      },
      "t_mapping(t_address,t_bool)": {
        "encoding": "mapping",
        "key": "t_address",
        "label": "mapping(address => bool)",
        "numberOfBytes": "32",
        "value": "t_bool"
      },
      "t_mapping(t_address,t_mapping(t_address,t_bool))": {
        "encoding": "mapping",
        "key": "t_address",
        "label": "mapping(address => mapping(address => bool))",
        "numberOfBytes": "32",
        "value": "t_mapping(t_address,t_bool)"
      },
      "t_mapping(t_address,t_string_storage)": {
        "encoding": "mapping",
        "key": "t_address",
        "label": "mapping(address => string)",
        "numberOfBytes": "32",
        "value": "t_string_storage"
      },
      "t_mapping(t_address,t_uint256)": {
        "encoding": "mapping",
        "key": "t_address",
        "label": "mapping(address => uint256)",
        "numberOfBytes": "32",
        "value": "t_uint256"
      },
      "t_mapping(t_bytes32,t_bool)": {
        "encoding": "mapping",
        "key": "t_bytes32",
        "label": "mapping(bytes32 => bool)",
        "numberOfBytes": "32",
        "value": "t_bool"
      },
      "t_mapping(t_uint256,t_address)": {
        "encoding": "mapping",
        "key": "t_uint256",
        "label": "mapping(uint256 => address)",
        "numberOfBytes": "32",
        "value": "t_address"
      },
      "t_mapping(t_uint256,t_mapping(t_address,t_string_storage))": {
        "encoding": "mapping",
        "key": "t_uint256",
        "label": "mapping(uint256 => mapping(address => string))",
        "numberOfBytes": "32",
        "value": "t_mapping(t_address,t_string_storage)"
      },
      "t_mapping(t_uint256,t_mapping(t_address,t_uint256))": {
        "encoding": "mapping",
        "key": "t_uint256",
        "label": "mapping(uint256 => mapping(address => uint256))",
        "numberOfBytes": "32",
        "value": "t_mapping(t_address,t_uint256)"
      },
      "t_mapping(t_uint256,t_struct(Royalty)8090_storage)": {
        "encoding": "mapping",
        "key": "t_uint256",
        "label": "mapping(uint256 => struct ERC2981Royalties.Royalty)",
        "numberOfBytes": "32",
        "value": "t_struct(Royalty)8090_storage"
      },
      "t_string_storage": {
        "encoding": "bytes",
        "label": "string",
        "numberOfBytes": "32"
      },
      "t_struct(Royalty)8090_storage": {
        "encoding": "inplace",
        "label": "struct ERC2981Royalties.Royalty",
        "members": [
          {
            "astId": 8087,
            "contract": "contracts/EditionsRegistry.sol:EditionsRegistry",
            "label": "recipient",
            "offset": 0,
            "slot": "0",
            "type": "t_address"
          },
          {
            "astId": 8089,
            "contract": "contracts/EditionsRegistry.sol:EditionsRegistry",
            "label": "value",
            "offset": 0,
            "slot": "1",
            "type": "t_uint256"
          }
        ],
        "numberOfBytes": "64"
      },
      "t_uint256": {
        "encoding": "inplace",
        "label": "uint256",
        "numberOfBytes": "32"
      }
    }
  }
}