{
  "address": "0x153Ab2ec25e4F43ed81A248729B7e4bBA976B62E",
  "abi": [
    {
      "anonymous": false,
      "inputs": [
        {
          "indexed": true,
          "internalType": "address",
          "name": "operator",
          "type": "address"
        }
      ],
      "name": "OperatorAdded",
      "type": "event"
    },
    {
      "anonymous": false,
      "inputs": [
        {
          "indexed": true,
          "internalType": "address",
          "name": "previousOwner",
          "type": "address"
        },
        {
          "indexed": true,
          "internalType": "address",
          "name": "newOwner",
          "type": "address"
        }
      ],
      "name": "OwnershipTransferred",
      "type": "event"
    },
    {
      "inputs": [
        {
          "internalType": "address[]",
          "name": "operators",
          "type": "address[]"
        }
      ],
      "name": "addOperators",
      "outputs": [],
      "stateMutability": "nonpayable",
      "type": "function"
    },
    {
      "inputs": [
        {
          "internalType": "address",
          "name": "token",
          "type": "address"
        },
        {
          "internalType": "address",
          "name": "from",
          "type": "address"
        },
        {
          "internalType": "address",
          "name": "to",
          "type": "address"
        },
        {
          "internalType": "uint256",
          "name": "tokenId",
          "type": "uint256"
        },
        {
          "internalType": "uint256",
          "name": "amount",
          "type": "uint256"
        },
        {
          "internalType": "bytes",
          "name": "data",
          "type": "bytes"
        }
      ],
      "name": "erc1155SafeTransferFrom",
      "outputs": [],
      "stateMutability": "nonpayable",
      "type": "function"
    },
    {
      "inputs": [
        {
          "internalType": "address",
          "name": "token",
          "type": "address"
        },
        {
          "internalType": "address",
          "name": "from",
          "type": "address"
        },
        {
          "internalType": "address",
          "name": "to",
          "type": "address"
        },
        {
          "internalType": "uint256",
          "name": "tokenId",
          "type": "uint256"
        },
        {
          "internalType": "bytes",
          "name": "data",
          "type": "bytes"
        }
      ],
      "name": "erc721SafeTransferFrom",
      "outputs": [],
      "stateMutability": "nonpayable",
      "type": "function"
    },
    {
      "inputs": [],
      "name": "initialize",
      "outputs": [],
      "stateMutability": "nonpayable",
      "type": "function"
    },
    {
      "inputs": [
        {
          "internalType": "address",
          "name": "address_",
          "type": "address"
        }
      ],
      "name": "isOperator",
      "outputs": [
        {
          "internalType": "bool",
          "name": "",
          "type": "bool"
        }
      ],
      "stateMutability": "view",
      "type": "function"
    },
    {
      "inputs": [],
      "name": "owner",
      "outputs": [
        {
          "internalType": "address",
          "name": "",
          "type": "address"
        }
      ],
      "stateMutability": "view",
      "type": "function"
    },
    {
      "inputs": [
        {
          "internalType": "address[]",
          "name": "operators",
          "type": "address[]"
        }
      ],
      "name": "removeOperators",
      "outputs": [],
      "stateMutability": "nonpayable",
      "type": "function"
    },
    {
      "inputs": [],
      "name": "renounceOwnership",
      "outputs": [],
      "stateMutability": "nonpayable",
      "type": "function"
    },
    {
      "inputs": [
        {
          "internalType": "address",
          "name": "newOwner",
          "type": "address"
        }
      ],
      "name": "transferOwnership",
      "outputs": [],
      "stateMutability": "nonpayable",
      "type": "function"
    }
  ],
  "transactionHash": "0x4b16f73968fa61f055beea436a4edd49c7ed67ef30ca65c1515ce3a5d108a228",
  "args": [],
  "solcInputHash": "08fcf28f322e72d6e85b9da9a2f91a52",
  "bytecode": "0x608060405234801561001057600080fd5b50610ca3806100206000396000f3fe608060405234801561001057600080fd5b50600436106100935760003560e01c80638da5cb5b116100665780638da5cb5b146100e657806395def2a2146100fb578063a07aea1c1461010e578063d365a37714610121578063f2fde38b1461013457610093565b8063488b0f7d146100985780636d70f7ae146100ad578063715018a6146100d65780638129fc1c146100de575b600080fd5b6100ab6100a63660046108df565b610147565b005b6100c06100bb3660046108be565b6101e3565b6040516100cd9190610b16565b60405180910390f35b6100ab61020a565b6100ab610293565b6100ee610310565b6040516100cd9190610a7c565b6100ab61010936600461095c565b61031f565b6100ab61011c3660046109e3565b6103b5565b6100ab61012f3660046109e3565b610453565b6100ab6101423660046108be565b610512565b610150336101e3565b6101755760405162461bcd60e51b815260040161016c90610b97565b60405180910390fd5b604051635c46a7ef60e11b81526001600160a01b0387169063b88d4fde906101a99088908890889088908890600401610a90565b600060405180830381600087803b1580156101c357600080fd5b505af11580156101d7573d6000803e3d6000fd5b50505050505050505050565b6001600160a01b03811660009081526065602052604090205460ff1615156001145b919050565b6102126105d3565b6001600160a01b0316610223610310565b6001600160a01b0316146102495760405162461bcd60e51b815260040161016c90610c11565b6033546040516000916001600160a01b0316907f8be0079c531659141344cd1fd0a4f28419497f9722a3daafe3b4186f6b6457e0908390a3603380546001600160a01b0319169055565b600054610100900460ff16806102ac575060005460ff16155b6102c85760405162461bcd60e51b815260040161016c90610bc3565b600054610100900460ff161580156102f3576000805460ff1961ff0019909116610100171660011790555b6102fb6105d7565b801561030d576000805461ff00191690555b50565b6033546001600160a01b031690565b610328336101e3565b6103445760405162461bcd60e51b815260040161016c90610b97565b604051637921219560e11b81526001600160a01b0388169063f242432a9061037a90899089908990899089908990600401610acf565b600060405180830381600087803b15801561039457600080fd5b505af11580156103a8573d6000803e3d6000fd5b5050505050505050505050565b6103bd6105d3565b6001600160a01b03166103ce610310565b6001600160a01b0316146103f45760405162461bcd60e51b815260040161016c90610c11565b60005b8181101561044e5761043c83838381811061042257634e487b7160e01b600052603260045260246000fd5b905060200201602081019061043791906108be565b61063f565b8061044681610c46565b9150506103f7565b505050565b61045b6105d3565b6001600160a01b031661046c610310565b6001600160a01b0316146104925760405162461bcd60e51b815260040161016c90610c11565b60005b8181101561044e576000606560008585858181106104c357634e487b7160e01b600052603260045260246000fd5b90506020020160208101906104d891906108be565b6001600160a01b031681526020810191909152604001600020805460ff19169115159190911790558061050a81610c46565b915050610495565b61051a6105d3565b6001600160a01b031661052b610310565b6001600160a01b0316146105515760405162461bcd60e51b815260040161016c90610c11565b6001600160a01b0381166105775760405162461bcd60e51b815260040161016c90610b51565b6033546040516001600160a01b038084169216907f8be0079c531659141344cd1fd0a4f28419497f9722a3daafe3b4186f6b6457e090600090a3603380546001600160a01b0319166001600160a01b0392909216919091179055565b3390565b600054610100900460ff16806105f0575060005460ff16155b61060c5760405162461bcd60e51b815260040161016c90610bc3565b600054610100900460ff16158015610637576000805460ff1961ff0019909116610100171660011790555b6102fb6106b1565b6001600160a01b0381166106655760405162461bcd60e51b815260040161016c90610b21565b6001600160a01b038116600081815260656020526040808220805460ff19166001179055517fac6fa858e9350a46cec16539926e0fde25b7629f84b5a72bffaae4df888ae86d9190a250565b600054610100900460ff16806106ca575060005460ff16155b6106e65760405162461bcd60e51b815260040161016c90610bc3565b600054610100900460ff16158015610711576000805460ff1961ff0019909116610100171660011790555b610719610721565b6102fb610794565b600054610100900460ff168061073a575060005460ff16155b6107565760405162461bcd60e51b815260040161016c90610bc3565b600054610100900460ff161580156102fb576000805460ff1961ff001990911661010017166001179055801561030d576000805461ff001916905550565b600054610100900460ff16806107ad575060005460ff16155b6107c95760405162461bcd60e51b815260040161016c90610bc3565b600054610100900460ff161580156107f4576000805460ff1961ff0019909116610100171660011790555b60006107fe6105d3565b603380546001600160a01b0319166001600160a01b038316908117909155604051919250906000907f8be0079c531659141344cd1fd0a4f28419497f9722a3daafe3b4186f6b6457e0908290a350801561030d576000805461ff001916905550565b80356001600160a01b038116811461020557600080fd5b60008083601f840112610888578182fd5b50813567ffffffffffffffff81111561089f578182fd5b6020830191508360208285010111156108b757600080fd5b9250929050565b6000602082840312156108cf578081fd5b6108d882610860565b9392505050565b60008060008060008060a087890312156108f7578182fd5b61090087610860565b955061090e60208801610860565b945061091c60408801610860565b935060608701359250608087013567ffffffffffffffff81111561093e578283fd5b61094a89828a01610877565b979a9699509497509295939492505050565b600080600080600080600060c0888a031215610976578081fd5b61097f88610860565b965061098d60208901610860565b955061099b60408901610860565b9450606088013593506080880135925060a088013567ffffffffffffffff8111156109c4578182fd5b6109d08a828b01610877565b989b979a50959850939692959293505050565b600080602083850312156109f5578182fd5b823567ffffffffffffffff80821115610a0c578384fd5b818501915085601f830112610a1f578384fd5b813581811115610a2d578485fd5b8660208083028501011115610a40578485fd5b60209290920196919550909350505050565b60008284528282602086013780602084860101526020601f19601f85011685010190509392505050565b6001600160a01b0391909116815260200190565b6001600160a01b0386811682528516602082015260408101849052608060608201819052600090610ac49083018486610a52565b979650505050505050565b6001600160a01b03878116825286166020820152604081018590526060810184905260a060808201819052600090610b0a9083018486610a52565b98975050505050505050565b901515815260200190565b6020808252601690820152752937b6329d1034b73b30b634b21027b832b930ba37b960511b604082015260600190565b60208082526026908201527f4f776e61626c653a206e6577206f776e657220697320746865207a65726f206160408201526564647265737360d01b606082015260800190565b6020808252601290820152712937b6329d103737ba1027b832b930ba37b960711b604082015260600190565b6020808252602e908201527f496e697469616c697a61626c653a20636f6e747261637420697320616c72656160408201526d191e481a5b9a5d1a585b1a5e995960921b606082015260800190565b6020808252818101527f4f776e61626c653a2063616c6c6572206973206e6f7420746865206f776e6572604082015260600190565b6000600019821415610c6657634e487b7160e01b81526011600452602481fd5b506001019056fea2646970667358221220b378f566d941ee255a17d0cbf2dc25f4ed5550369df63cc23e40656163ac485a64736f6c63430008000033",
  "devdoc": {
    "kind": "dev",
    "methods": {
      "owner()": {
        "details": "Returns the address of the current owner."
      },
      "renounceOwnership()": {
        "details": "Leaves the contract without owner. It will not be possible to call `onlyOwner` functions anymore. Can only be called by the current owner. NOTE: Renouncing ownership will leave the contract without an owner, thereby removing any functionality that is only available to the owner."
      },
      "transferOwnership(address)": {
        "details": "Transfers ownership of the contract to a new account (`newOwner`). Can only be called by the current owner."
      }
    },
    "version": 1
  },
  "userdoc": {
    "kind": "user",
    "methods": {},
    "version": 1
  },
  "storageLayout": {
    "storage": [
      {
        "astId": 136,
        "contract": "contracts/Proxys/Transfer/TransferProxy.sol:TransferProxy",
        "label": "_initialized",
        "offset": 0,
        "slot": "0",
        "type": "t_bool"
      },
      {
        "astId": 139,
        "contract": "contracts/Proxys/Transfer/TransferProxy.sol:TransferProxy",
        "label": "_initializing",
        "offset": 1,
        "slot": "0",
        "type": "t_bool"
      },
      {
        "astId": 1873,
        "contract": "contracts/Proxys/Transfer/TransferProxy.sol:TransferProxy",
        "label": "__gap",
        "offset": 0,
        "slot": "1",
        "type": "t_array(t_uint256)50_storage"
      },
      {
        "astId": 10,
        "contract": "contracts/Proxys/Transfer/TransferProxy.sol:TransferProxy",
        "label": "_owner",
        "offset": 0,
        "slot": "51",
        "type": "t_address"
      },
      {
        "astId": 129,
        "contract": "contracts/Proxys/Transfer/TransferProxy.sol:TransferProxy",
        "label": "__gap",
        "offset": 0,
        "slot": "52",
        "type": "t_array(t_uint256)49_storage"
      },
      {
        "astId": 5061,
        "contract": "contracts/Proxys/Transfer/TransferProxy.sol:TransferProxy",
        "label": "_operators",
        "offset": 0,
        "slot": "101",
        "type": "t_mapping(t_address,t_bool)"
      }
    ],
    "types": {
      "t_address": {
        "encoding": "inplace",
        "label": "address",
        "numberOfBytes": "20"
      },
      "t_array(t_uint256)49_storage": {
        "base": "t_uint256",
        "encoding": "inplace",
        "label": "uint256[49]",
        "numberOfBytes": "1568"
      },
      "t_array(t_uint256)50_storage": {
        "base": "t_uint256",
        "encoding": "inplace",
        "label": "uint256[50]",
        "numberOfBytes": "1600"
      },
      "t_bool": {
        "encoding": "inplace",
        "label": "bool",
        "numberOfBytes": "1"
      },
      "t_mapping(t_address,t_bool)": {
        "encoding": "mapping",
        "key": "t_address",
        "label": "mapping(address => bool)",
        "numberOfBytes": "32",
        "value": "t_bool"
      },
      "t_uint256": {
        "encoding": "inplace",
        "label": "uint256",
        "numberOfBytes": "32"
      }
    }
  }
}