{
  "address": "0x981AB47f1AcB2BD7E96d8D3304793DFF8f2B42Ac",
  "abi": [
    {
      "anonymous": false,
      "inputs": [
        {
          "indexed": true,
          "internalType": "uint256",
          "name": "orderNonce",
          "type": "uint256"
        },
        {
          "indexed": true,
          "internalType": "address",
          "name": "token",
          "type": "address"
        },
        {
          "indexed": true,
          "internalType": "uint256",
          "name": "tokenId",
          "type": "uint256"
        },
        {
          "indexed": false,
          "internalType": "uint256",
          "name": "amount",
          "type": "uint256"
        },
        {
          "indexed": false,
          "internalType": "address",
          "name": "maker",
          "type": "address"
        },
        {
          "indexed": false,
          "internalType": "address",
          "name": "buyer",
          "type": "address"
        },
        {
          "indexed": false,
          "internalType": "uint256",
          "name": "value",
          "type": "uint256"
        },
        {
          "indexed": false,
          "internalType": "uint256",
          "name": "serviceFee",
          "type": "uint256"
        }
      ],
      "name": "Buy",
      "type": "event"
    },
    {
      "anonymous": false,
      "inputs": [
        {
          "indexed": false,
          "internalType": "uint256",
          "name": "orderNonce",
          "type": "uint256"
        },
        {
          "indexed": true,
          "internalType": "address",
          "name": "token",
          "type": "address"
        },
        {
          "indexed": true,
          "internalType": "uint256",
          "name": "tokenId",
          "type": "uint256"
        },
        {
          "indexed": false,
          "internalType": "address",
          "name": "maker",
          "type": "address"
        }
      ],
      "name": "CloseOrder",
      "type": "event"
    },
    {
      "anonymous": false,
      "inputs": [
        {
          "indexed": true,
          "internalType": "address",
          "name": "previousOwner",
          "type": "address"
        },
        {
          "indexed": true,
          "internalType": "address",
          "name": "newOwner",
          "type": "address"
        }
      ],
      "name": "OwnershipTransferred",
      "type": "event"
    },
    {
      "inputs": [
        {
          "components": [
            {
              "internalType": "enum WallkandaSaleStorage.TokenType",
              "name": "tokenType",
              "type": "uint8"
            },
            {
              "internalType": "address",
              "name": "exchange",
              "type": "address"
            },
            {
              "internalType": "address",
              "name": "maker",
              "type": "address"
            },
            {
              "internalType": "address",
              "name": "taker",
              "type": "address"
            },
            {
              "internalType": "address",
              "name": "token",
              "type": "address"
            },
            {
              "internalType": "uint256",
              "name": "tokenId",
              "type": "uint256"
            },
            {
              "internalType": "uint256",
              "name": "quantity",
              "type": "uint256"
            },
            {
              "internalType": "uint256",
              "name": "maxPerBuy",
              "type": "uint256"
            },
            {
              "internalType": "uint256",
              "name": "orderNonce",
              "type": "uint256"
            },
            {
              "internalType": "address",
              "name": "buyToken",
              "type": "address"
            },
            {
              "internalType": "uint256",
              "name": "unitPrice",
              "type": "uint256"
            }
          ],
          "internalType": "struct WallkandaSaleStorage.OrderData",
          "name": "order",
          "type": "tuple"
        },
        {
          "components": [
            {
              "internalType": "uint8",
              "name": "v",
              "type": "uint8"
            },
            {
              "internalType": "bytes32",
              "name": "r",
              "type": "bytes32"
            },
            {
              "internalType": "bytes32",
              "name": "s",
              "type": "bytes32"
            }
          ],
          "internalType": "struct WallkandaSaleStorage.Signature",
          "name": "sig",
          "type": "tuple"
        }
      ],
      "name": "_validateOrderSig",
      "outputs": [],
      "stateMutability": "pure",
      "type": "function"
    },
    {
      "inputs": [],
      "name": "beneficiary",
      "outputs": [
        {
          "internalType": "address payable",
          "name": "",
          "type": "address"
        }
      ],
      "stateMutability": "view",
      "type": "function"
    },
    {
      "inputs": [
        {
          "components": [
            {
              "internalType": "enum WallkandaSaleStorage.TokenType",
              "name": "tokenType",
              "type": "uint8"
            },
            {
              "internalType": "address",
              "name": "exchange",
              "type": "address"
            },
            {
              "internalType": "address",
              "name": "maker",
              "type": "address"
            },
            {
              "internalType": "address",
              "name": "taker",
              "type": "address"
            },
            {
              "internalType": "address",
              "name": "token",
              "type": "address"
            },
            {
              "internalType": "uint256",
              "name": "tokenId",
              "type": "uint256"
            },
            {
              "internalType": "uint256",
              "name": "quantity",
              "type": "uint256"
            },
            {
              "internalType": "uint256",
              "name": "maxPerBuy",
              "type": "uint256"
            },
            {
              "internalType": "uint256",
              "name": "orderNonce",
              "type": "uint256"
            },
            {
              "internalType": "address",
              "name": "buyToken",
              "type": "address"
            },
            {
              "internalType": "uint256",
              "name": "unitPrice",
              "type": "uint256"
            }
          ],
          "internalType": "struct WallkandaSaleStorage.OrderData",
          "name": "order",
          "type": "tuple"
        },
        {
          "components": [
            {
              "internalType": "uint8",
              "name": "v",
              "type": "uint8"
            },
            {
              "internalType": "bytes32",
              "name": "r",
              "type": "bytes32"
            },
            {
              "internalType": "bytes32",
              "name": "s",
              "type": "bytes32"
            }
          ],
          "internalType": "struct WallkandaSaleStorage.Signature",
          "name": "sig",
          "type": "tuple"
        },
        {
          "internalType": "uint256",
          "name": "amount",
          "type": "uint256"
        }
      ],
      "name": "buy",
      "outputs": [],
      "stateMutability": "payable",
      "type": "function"
    },
    {
      "inputs": [],
      "name": "buyerServiceFee",
      "outputs": [
        {
          "internalType": "uint256",
          "name": "",
          "type": "uint256"
        }
      ],
      "stateMutability": "view",
      "type": "function"
    },
    {
      "inputs": [
        {
          "internalType": "address",
          "name": "token",
          "type": "address"
        },
        {
          "internalType": "uint256",
          "name": "tokenId",
          "type": "uint256"
        },
        {
          "internalType": "uint256",
          "name": "orderNonce",
          "type": "uint256"
        },
        {
          "internalType": "uint256",
          "name": "quantity",
          "type": "uint256"
        }
      ],
      "name": "cancelOrder",
      "outputs": [],
      "stateMutability": "nonpayable",
      "type": "function"
    },
    {
      "inputs": [
        {
          "internalType": "bytes32",
          "name": "",
          "type": "bytes32"
        }
      ],
      "name": "completed",
      "outputs": [
        {
          "internalType": "uint256",
          "name": "",
          "type": "uint256"
        }
      ],
      "stateMutability": "view",
      "type": "function"
    },
    {
      "inputs": [
        {
          "components": [
            {
              "internalType": "enum WallkandaSaleStorage.TokenType",
              "name": "tokenType",
              "type": "uint8"
            },
            {
              "internalType": "address",
              "name": "exchange",
              "type": "address"
            },
            {
              "internalType": "address",
              "name": "maker",
              "type": "address"
            },
            {
              "internalType": "address",
              "name": "taker",
              "type": "address"
            },
            {
              "internalType": "address",
              "name": "token",
              "type": "address"
            },
            {
              "internalType": "uint256",
              "name": "tokenId",
              "type": "uint256"
            },
            {
              "internalType": "uint256",
              "name": "quantity",
              "type": "uint256"
            },
            {
              "internalType": "uint256",
              "name": "maxPerBuy",
              "type": "uint256"
            },
            {
              "internalType": "uint256",
              "name": "orderNonce",
              "type": "uint256"
            },
            {
              "internalType": "address",
              "name": "buyToken",
              "type": "address"
            },
            {
              "internalType": "uint256",
              "name": "unitPrice",
              "type": "uint256"
            }
          ],
          "internalType": "struct WallkandaSaleStorage.OrderData",
          "name": "order",
          "type": "tuple"
        },
        {
          "internalType": "uint256",
          "name": "amount",
          "type": "uint256"
        }
      ],
      "name": "computeValues",
      "outputs": [
        {
          "components": [
            {
              "internalType": "uint256",
              "name": "total",
              "type": "uint256"
            },
            {
              "internalType": "uint256",
              "name": "sellerEndValue",
              "type": "uint256"
            },
            {
              "internalType": "uint256",
              "name": "totalTransaction",
              "type": "uint256"
            },
            {
              "internalType": "uint256",
              "name": "serviceFees",
              "type": "uint256"
            },
            {
              "internalType": "uint256",
              "name": "royaltiesAmount",
              "type": "uint256"
            },
            {
              "internalType": "address",
              "name": "royaltiesRecipient",
              "type": "address"
            }
          ],
          "internalType": "struct WallkandaSaleStorage.OrderTransfers",
          "name": "orderTransfers",
          "type": "tuple"
        }
      ],
      "stateMutability": "view",
      "type": "function"
    },
    {
      "inputs": [
        {
          "internalType": "address payable",
          "name": "_beneficiary",
          "type": "address"
        },
        {
          "internalType": "address",
          "name": "_transferProxy",
          "type": "address"
        },
        {
          "internalType": "uint256",
          "name": "_buyerServiceFee",
          "type": "uint256"
        },
        {
          "internalType": "uint256",
          "name": "_sellerServiceFee",
          "type": "uint256"
        }
      ],
      "name": "initialize",
      "outputs": [],
      "stateMutability": "nonpayable",
      "type": "function"
    },
    {
      "inputs": [],
      "name": "owner",
      "outputs": [
        {
          "internalType": "address",
          "name": "",
          "type": "address"
        }
      ],
      "stateMutability": "view",
      "type": "function"
    },
    {
      "inputs": [
        {
          "components": [
            {
              "internalType": "enum WallkandaSaleStorage.TokenType",
              "name": "tokenType",
              "type": "uint8"
            },
            {
              "internalType": "address",
              "name": "exchange",
              "type": "address"
            },
            {
              "internalType": "address",
              "name": "maker",
              "type": "address"
            },
            {
              "internalType": "address",
              "name": "taker",
              "type": "address"
            },
            {
              "internalType": "address",
              "name": "token",
              "type": "address"
            },
            {
              "internalType": "uint256",
              "name": "tokenId",
              "type": "uint256"
            },
            {
              "internalType": "uint256",
              "name": "quantity",
              "type": "uint256"
            },
            {
              "internalType": "uint256",
              "name": "maxPerBuy",
              "type": "uint256"
            },
            {
              "internalType": "uint256",
              "name": "orderNonce",
              "type": "uint256"
            },
            {
              "internalType": "address",
              "name": "buyToken",
              "type": "address"
            },
            {
              "internalType": "uint256",
              "name": "unitPrice",
              "type": "uint256"
            }
          ],
          "internalType": "struct WallkandaSaleStorage.OrderData",
          "name": "order",
          "type": "tuple"
        }
      ],
      "name": "prepareOrderMessage",
      "outputs": [
        {
          "internalType": "bytes32",
          "name": "",
          "type": "bytes32"
        }
      ],
      "stateMutability": "pure",
      "type": "function"
    },
    {
      "inputs": [
        {
          "internalType": "bytes32",
          "name": "message",
          "type": "bytes32"
        },
        {
          "components": [
            {
              "internalType": "uint8",
              "name": "v",
              "type": "uint8"
            },
            {
              "internalType": "bytes32",
              "name": "r",
              "type": "bytes32"
            },
            {
              "internalType": "bytes32",
              "name": "s",
              "type": "bytes32"
            }
          ],
          "internalType": "struct WallkandaSaleStorage.Signature",
          "name": "signature",
          "type": "tuple"
        }
      ],
      "name": "recoverMessageSignature",
      "outputs": [
        {
          "internalType": "address",
          "name": "",
          "type": "address"
        }
      ],
      "stateMutability": "pure",
      "type": "function"
    },
    {
      "inputs": [],
      "name": "renounceOwnership",
      "outputs": [],
      "stateMutability": "nonpayable",
      "type": "function"
    },
    {
      "inputs": [],
      "name": "sellerServiceFee",
      "outputs": [
        {
          "internalType": "uint256",
          "name": "",
          "type": "uint256"
        }
      ],
      "stateMutability": "view",
      "type": "function"
    },
    {
      "inputs": [
        {
          "internalType": "address payable",
          "name": "_beneficiary",
          "type": "address"
        }
      ],
      "name": "setBeneficiary",
      "outputs": [],
      "stateMutability": "nonpayable",
      "type": "function"
    },
    {
      "inputs": [
        {
          "internalType": "uint256",
          "name": "_buyerServiceFee",
          "type": "uint256"
        }
      ],
      "name": "setBuyerServiceFee",
      "outputs": [],
      "stateMutability": "nonpayable",
      "type": "function"
    },
    {
      "inputs": [
        {
          "internalType": "uint256",
          "name": "_sellerServiceFee",
          "type": "uint256"
        }
      ],
      "name": "setSellerServiceFee",
      "outputs": [],
      "stateMutability": "nonpayable",
      "type": "function"
    },
    {
      "inputs": [
        {
          "internalType": "address",
          "name": "_transferProxy",
          "type": "address"
        }
      ],
      "name": "setTransferProxy",
      "outputs": [],
      "stateMutability": "nonpayable",
      "type": "function"
    },
    {
      "inputs": [
        {
          "internalType": "address",
          "name": "newOwner",
          "type": "address"
        }
      ],
      "name": "transferOwnership",
      "outputs": [],
      "stateMutability": "nonpayable",
      "type": "function"
    },
    {
      "inputs": [],
      "name": "transferProxy",
      "outputs": [
        {
          "internalType": "contract ITransferProxy",
          "name": "",
          "type": "address"
        }
      ],
      "stateMutability": "view",
      "type": "function"
    }
  ],
  "transactionHash": "0x34c1b4bd9872b65aafc07353d457826b9a71b19fdd93f26b17dc6f5ba317a037",
  "args": [],
  "solcInputHash": "9c379f682c82fe4aa77e887111001cf5",
  "bytecode": "0x608060405234801561001057600080fd5b50611cb0806100206000396000f3fe6080604052600436106101145760003560e01c80638ae42905116100a0578063a9d7999f11610064578063a9d7999f146102af578063c68e8bfb146102cf578063eb990c59146102fc578063f2fde38b1461031c578063f6419d961461033c57610114565b80638ae42905146102255780638b0b10a2146102455780638da5cb5b146102655780639c66809d1461027a578063a0cb68eb1461028f57610114565b80633f5b8250116100e75780633f5b8250146101a6578063525ea6b5146101b957806360085da6146101d95780636e667db3146101fb578063715018a61461021057610114565b80631c31f710146101195780632350648b1461013b57806325feb6bc1461015b57806338af3eed14610191575b600080fd5b34801561012557600080fd5b50610139610134366004611381565b61035c565b005b34801561014757600080fd5b50610139610156366004611510565b6103d9565b34801561016757600080fd5b5061017b610176366004611528565b61041d565b604051610188919061168a565b60405180910390f35b34801561019d57600080fd5b5061017b6104c9565b6101396101b436600461159d565b6104d8565b3480156101c557600080fd5b506101396101d4366004611570565b6106b7565b3480156101e557600080fd5b506101ee610701565b604051610188919061174d565b34801561020757600080fd5b5061017b610707565b34801561021c57600080fd5b50610139610716565b34801561023157600080fd5b50610139610240366004611381565b61079f565b34801561025157600080fd5b506101ee610260366004611554565b610813565b34801561027157600080fd5b5061017b610844565b34801561028657600080fd5b506101ee610853565b34801561029b57600080fd5b506101396102aa3660046114b6565b610859565b3480156102bb57600080fd5b506101396102ca366004611510565b6108ca565b3480156102db57600080fd5b506102ef6102ea3660046115dd565b61090e565b6040516101889190611ad1565b34801561030857600080fd5b506101396103173660046113a4565b610a0d565b34801561032857600080fd5b50610139610337366004611381565b610aba565b34801561034857600080fd5b506101ee610357366004611510565b610b7b565b610364610b8d565b6001600160a01b0316610375610844565b6001600160a01b0316146103a45760405162461bcd60e51b815260040161039b9061193a565b60405180910390fd5b6001600160a01b0381166103b757600080fd5b609980546001600160a01b0319166001600160a01b0392909216919091179055565b6103e1610b8d565b6001600160a01b03166103f2610844565b6001600160a01b0316146104185760405162461bcd60e51b815260040161039b9061193a565b609855565b60008061042d6020840184611609565b9050601b8160ff16101561044957610446601b82611bbe565b90505b60018460405160200161045c9190611659565b60408051601f1981840301815282825280516020918201206000845292810180835261049393928692890135919089013590611756565b6020604051602081039080840390855afa1580156104b5573d6000803e3d6000fd5b505050602060405103519150505b92915050565b6099546001600160a01b031681565b600260655414156104fb5760405162461bcd60e51b815260040161039b906119be565b600260655560208301516001600160a01b0316301461052c5760405162461bcd60e51b815260040161039b906117cf565b60608301516001600160a01b0316156105745782606001516001600160a01b0316336001600160a01b0316146105745760405162461bcd60e51b815260040161039b90611847565b600081116105945760405162461bcd60e51b815260040161039b90611903565b60e083015115806105a957508260e001518111155b6105c55760405162461bcd60e51b815260040161039b906119f5565b6105cf83836106b7565b60006105db8483610b91565b905060006105e98584610c1a565b90508460a0015185608001516001600160a01b03168661010001517f24dfc6da17e625aef88e98e7eb030f8bc7a234ba64b27076f05d62b5245fb4618689604001513387600001518860600151604051610647959493929190611b30565b60405180910390a481156106ab578460a0015185608001516001600160a01b03167f68c1771f207c0e6b02043d9afed3bae85d8a473721b0f42a8d8d5eea8250df4987610100015188604001516040516106a2929190611b19565b60405180910390a35b50506001606555505050565b81604001516001600160a01b03166106d76106d184610813565b8361041d565b6001600160a01b0316146106fd5760405162461bcd60e51b815260040161039b90611810565b5050565b60975481565b609a546001600160a01b031681565b61071e610b8d565b6001600160a01b031661072f610844565b6001600160a01b0316146107555760405162461bcd60e51b815260040161039b9061193a565b6033546040516000916001600160a01b0316907f8be0079c531659141344cd1fd0a4f28419497f9722a3daafe3b4186f6b6457e0908390a3603380546001600160a01b0319169055565b6107a7610b8d565b6001600160a01b03166107b8610844565b6001600160a01b0316146107de5760405162461bcd60e51b815260040161039b9061193a565b6001600160a01b0381166107f157600080fd5b609a80546001600160a01b0319166001600160a01b0392909216919091179055565b6000816040516020016108269190611a23565b6040516020818303038152906040528051906020012090505b919050565b6033546001600160a01b031690565b60985481565b60006108688585843387610e52565b6000818152609b6020526040908190208490555190915084906001600160a01b038716907f68c1771f207c0e6b02043d9afed3bae85d8a473721b0f42a8d8d5eea8250df49906108bb9087903390611b19565b60405180910390a35050505050565b6108d2610b8d565b6001600160a01b03166108e3610844565b6001600160a01b0316146109095760405162461bcd60e51b815260040161039b9061193a565b609755565b610916611254565b818361014001516109279190611c03565b8082526098546000916127109161093d91611c03565b6109479190611be3565b9050600061271060975484600001516109609190611c03565b61096a9190611be3565b835190915061097a908390611ba6565b6040840152825161098c908290611c22565b602084015261099b8282611ba6565b6060840152608085015160a0860151845160009283926109ba92610e8e565b915091506000811180156109d2575084602001518111155b15610a03576001600160a01b03821660a08601526080850181905260208501516109fd908290611c22565b60208601525b5050505092915050565b600054610100900460ff1680610a26575060005460ff16155b610a425760405162461bcd60e51b815260040161039b906118b5565b600054610100900460ff16158015610a6d576000805460ff1961ff0019909116610100171660011790555b610a75610faf565b610a7d611034565b610a868561035c565b610a8f8461079f565b610a98836103d9565b610aa1826108ca565b8015610ab3576000805461ff00191690555b5050505050565b610ac2610b8d565b6001600160a01b0316610ad3610844565b6001600160a01b031614610af95760405162461bcd60e51b815260040161039b9061193a565b6001600160a01b038116610b1f5760405162461bcd60e51b815260040161039b90611789565b6033546040516001600160a01b038084169216907f8be0079c531659141344cd1fd0a4f28419497f9722a3daafe3b4186f6b6457e090600090a3603380546001600160a01b0319166001600160a01b0392909216919091179055565b609b6020526000908152604090205481565b3390565b600080610bb684608001518560a001518660c001518760400151886101000151610e52565b6000818152609b602052604081205491925090610bd4908590611ba6565b90508460c00151811115610bfa5760405162461bcd60e51b815260040161039b9061196f565b6000918252609b602052604090912081905560c084015114905092915050565b610c22611254565b610c2c838361090e565b905080604001513414610c515760405162461bcd60e51b815260040161039b9061187e565b805115610d3c57606081015115610ca25760995460608201516040516001600160a01b039092169181156108fc0291906000818181858888f19350505050158015610ca0573d6000803e3d6000fd5b505b608081015115610cef578060a001516001600160a01b03166108fc82608001519081150290604051600060405180830381858888f19350505050158015610ced573d6000803e3d6000fd5b505b602081015115610d3c5782604001516001600160a01b03166108fc82602001519081150290604051600060405180830381858888f19350505050158015610d3a573d6000803e3d6000fd5b505b600083516001811115610d5f57634e487b7160e01b600052602160045260246000fd5b1415610de157609a54608084015160408086015160a08701519151634aef795160e11b81526001600160a01b03909416936395def2a293610daa9390929133919089906004016116d7565b600060405180830381600087803b158015610dc457600080fd5b505af1158015610dd8573d6000803e3d6000fd5b505050506104c3565b609a54608084015160408086015160a0870151915163488b0f7d60e01b81526001600160a01b039094169363488b0f7d93610e249390929133919060040161169e565b600060405180830381600087803b158015610e3e57600080fd5b505af1158015610a03573d6000803e3d6000fd5b60008585858585604051602001610e6d95949392919061171a565b60405160208183030381529060405280519060200120905095945050505050565b6040516301ffc9a760e01b8152600090819085906001600160a01b038216906301ffc9a790610ec89063c155531d60e01b90600401611774565b60206040518083038186803b158015610ee057600080fd5b505afa158015610ef4573d6000803e3d6000fd5b505050506040513d601f19601f82011682018060405250810190610f1891906114f0565b15610fa65760405163c155531d60e01b81526001600160a01b0382169063c155531d90610f4b9088908890600401611b5f565b60006040518083038186803b158015610f6357600080fd5b505afa158015610f77573d6000803e3d6000fd5b505050506040513d6000823e601f3d908101601f19168201604052610f9f91908101906113e9565b5090935091505b50935093915050565b600054610100900460ff1680610fc8575060005460ff16155b610fe45760405162461bcd60e51b815260040161039b906118b5565b600054610100900460ff1615801561100f576000805460ff1961ff0019909116610100171660011790555b61101761109c565b61101f61110f565b8015611031576000805461ff00191690555b50565b600054610100900460ff168061104d575060005460ff16155b6110695760405162461bcd60e51b815260040161039b906118b5565b600054610100900460ff16158015611094576000805460ff1961ff0019909116610100171660011790555b61101f6111db565b600054610100900460ff16806110b5575060005460ff16155b6110d15760405162461bcd60e51b815260040161039b906118b5565b600054610100900460ff1615801561101f576000805460ff1961ff0019909116610100171660011790558015611031576000805461ff001916905550565b600054610100900460ff1680611128575060005460ff16155b6111445760405162461bcd60e51b815260040161039b906118b5565b600054610100900460ff1615801561116f576000805460ff1961ff0019909116610100171660011790555b6000611179610b8d565b603380546001600160a01b0319166001600160a01b038316908117909155604051919250906000907f8be0079c531659141344cd1fd0a4f28419497f9722a3daafe3b4186f6b6457e0908290a3508015611031576000805461ff001916905550565b600054610100900460ff16806111f4575060005460ff16155b6112105760405162461bcd60e51b815260040161039b906118b5565b600054610100900460ff1615801561123b576000805460ff1961ff0019909116610100171660011790555b60016065558015611031576000805461ff001916905550565b6040518060c00160405280600081526020016000815260200160008152602001600081526020016000815260200160006001600160a01b031681525090565b803561083f81611c65565b80356002811061083f57600080fd5b60006101608083850312156112c0578182fd5b6112c981611b7c565b9150506112d58261129e565b81526112e360208301611293565b60208201526112f460408301611293565b604082015261130560608301611293565b606082015261131660808301611293565b608082015260a082013560a082015260c082013560c082015260e082013560e0820152610100808301358183015250610120611353818401611293565b818301525061014080830135818301525092915050565b60006060828403121561137b578081fd5b50919050565b600060208284031215611392578081fd5b813561139d81611c65565b9392505050565b600080600080608085870312156113b9578283fd5b84356113c481611c65565b935060208501356113d481611c65565b93969395505050506040820135916060013590565b6000806000606084860312156113fd578283fd5b835161140881611c65565b809350506020808501519250604085015167ffffffffffffffff8082111561142e578384fd5b818701915087601f830112611441578384fd5b81518181111561145357611453611c4f565b611465601f8201601f19168501611b7c565b9150808252888482850101111561147a578485fd5b845b8181101561149757838101850151838201860152840161147c565b818111156114a757858583850101525b50508093505050509250925092565b600080600080608085870312156114cb578384fd5b84356114d681611c65565b966020860135965060408601359560600135945092505050565b600060208284031215611501578081fd5b8151801515811461139d578182fd5b600060208284031215611521578081fd5b5035919050565b6000806080838503121561153a578182fd5b8235915061154b846020850161136a565b90509250929050565b60006101608284031215611566578081fd5b61139d83836112ad565b6000806101c08385031215611583578182fd5b61158d84846112ad565b915061154b84610160850161136a565b60008060006101e084860312156115b2578081fd5b6115bc85856112ad565b92506115cc85610160860161136a565b91506101c084013590509250925092565b60008061018083850312156115f0578182fd5b6115fa84846112ad565b94610160939093013593505050565b60006020828403121561161a578081fd5b813560ff8116811461139d578182fd5b6001600160a01b03169052565b6002811061165557634e487b7160e01b600052602160045260246000fd5b9052565b7f19457468657265756d205369676e6564204d6573736167653a0a3332000000008152601c810191909152603c0190565b6001600160a01b0391909116815260200190565b6001600160a01b039485168152928416602084015292166040820152606081019190915260a06080820181905260009082015260c00190565b6001600160a01b03958616815293851660208501529190931660408301526060820192909252608081019190915260c060a0820181905260009082015260e00190565b6001600160a01b039586168152602081019490945260408401929092529092166060820152608081019190915260a00190565b90815260200190565b93845260ff9290921660208401526040830152606082015260800190565b6001600160e01b031991909116815260200190565b60208082526026908201527f4f776e61626c653a206e6577206f776e657220697320746865207a65726f206160408201526564647265737360d01b606082015260800190565b60208082526021908201527f53616c653a204f72646572206e6f7420666f72207468697320636f6e747261636040820152601d60fa1b606082015260800190565b6020808252601f908201527f53616c653a20496e636f7272656374206f72646572207369676e617475726500604082015260600190565b6020808252601d908201527f53616c653a204f72646572206e6f7420666f7220746869732075736572000000604082015260600190565b6020808252601d908201527f53616c653a2053656e742076616c756520697320696e636f7272656374000000604082015260600190565b6020808252602e908201527f496e697469616c697a61626c653a20636f6e747261637420697320616c72656160408201526d191e481a5b9a5d1a585b1a5e995960921b606082015260800190565b60208082526018908201527f53616c653a20616d6f756e74206d757374206265203e20300000000000000000604082015260600190565b6020808252818101527f4f776e61626c653a2063616c6c6572206973206e6f7420746865206f776e6572604082015260600190565b6020808252602f908201527f53616c653a204f7264657220616c726561647920636c6f736564206f7220717560408201526e0c2dce8d2e8f240e8dede40d0d2ced608b1b606082015260800190565b6020808252601f908201527f5265656e7472616e637947756172643a207265656e7472616e742063616c6c00604082015260600190565b60208082526014908201527353616c653a20416d6f756e7420746f6f2062696760601b604082015260600190565b600061016082019050611a37828451611637565b6020830151611a49602084018261162a565b506040830151611a5c604084018261162a565b506060830151611a6f606084018261162a565b506080830151611a82608084018261162a565b5060a083015160a083015260c083015160c083015260e083015160e083015261010080840151818401525061012080840151611ac08285018261162a565b505061014092830151919092015290565b815181526020808301519082015260408083015190820152606080830151908201526080808301519082015260a0918201516001600160a01b03169181019190915260c00190565b9182526001600160a01b0316602082015260400190565b9485526001600160a01b0393841660208601529190921660408401526060830191909152608082015260a00190565b918252602082015260606040820181905260009082015260800190565b60405181810167ffffffffffffffff81118282101715611b9e57611b9e611c4f565b604052919050565b60008219821115611bb957611bb9611c39565b500190565b600060ff821660ff84168060ff03821115611bdb57611bdb611c39565b019392505050565b600082611bfe57634e487b7160e01b81526012600452602481fd5b500490565b6000816000190483118215151615611c1d57611c1d611c39565b500290565b600082821015611c3457611c34611c39565b500390565b634e487b7160e01b600052601160045260246000fd5b634e487b7160e01b600052604160045260246000fd5b6001600160a01b038116811461103157600080fdfea2646970667358221220f1ee5e47211199487c45b9e4d217d05a96a3b741116792bcf58af02eccb62aba64736f6c63430008000033",
  "devdoc": {
    "kind": "dev",
    "methods": {
      "computeValues((uint8,address,address,address,address,uint256,uint256,uint256,uint256,address,uint256),uint256)": {
        "details": "this function computes all the values that we need for the exchange. this can be called off-chain before buying so all values can be computed easily It will also help when we introduce tokens for payment"
      },
      "owner()": {
        "details": "Returns the address of the current owner."
      },
      "recoverMessageSignature(bytes32,(uint8,bytes32,bytes32))": {
        "details": "verifies signature"
      },
      "renounceOwnership()": {
        "details": "Leaves the contract without owner. It will not be possible to call `onlyOwner` functions anymore. Can only be called by the current owner. NOTE: Renouncing ownership will leave the contract without an owner, thereby removing any functionality that is only available to the owner."
      },
      "transferOwnership(address)": {
        "details": "Transfers ownership of the contract to a new account (`newOwner`). Can only be called by the current owner."
      }
    },
    "version": 1
  },
  "userdoc": {
    "kind": "user",
    "methods": {},
    "version": 1
  },
  "storageLayout": {
    "storage": [
      {
        "astId": 136,
        "contract": "contracts/Sales/WallkandaSale.sol:WallkandaSale",
        "label": "_initialized",
        "offset": 0,
        "slot": "0",
        "type": "t_bool"
      },
      {
        "astId": 139,
        "contract": "contracts/Sales/WallkandaSale.sol:WallkandaSale",
        "label": "_initializing",
        "offset": 1,
        "slot": "0",
        "type": "t_bool"
      },
      {
        "astId": 1873,
        "contract": "contracts/Sales/WallkandaSale.sol:WallkandaSale",
        "label": "__gap",
        "offset": 0,
        "slot": "1",
        "type": "t_array(t_uint256)50_storage"
      },
      {
        "astId": 10,
        "contract": "contracts/Sales/WallkandaSale.sol:WallkandaSale",
        "label": "_owner",
        "offset": 0,
        "slot": "51",
        "type": "t_address"
      },
      {
        "astId": 129,
        "contract": "contracts/Sales/WallkandaSale.sol:WallkandaSale",
        "label": "__gap",
        "offset": 0,
        "slot": "52",
        "type": "t_array(t_uint256)49_storage"
      },
      {
        "astId": 303,
        "contract": "contracts/Sales/WallkandaSale.sol:WallkandaSale",
        "label": "_status",
        "offset": 0,
        "slot": "101",
        "type": "t_uint256"
      },
      {
        "astId": 346,
        "contract": "contracts/Sales/WallkandaSale.sol:WallkandaSale",
        "label": "__gap",
        "offset": 0,
        "slot": "102",
        "type": "t_array(t_uint256)49_storage"
      },
      {
        "astId": 6760,
        "contract": "contracts/Sales/WallkandaSale.sol:WallkandaSale",
        "label": "sellerServiceFee",
        "offset": 0,
        "slot": "151",
        "type": "t_uint256"
      },
      {
        "astId": 6762,
        "contract": "contracts/Sales/WallkandaSale.sol:WallkandaSale",
        "label": "buyerServiceFee",
        "offset": 0,
        "slot": "152",
        "type": "t_uint256"
      },
      {
        "astId": 6764,
        "contract": "contracts/Sales/WallkandaSale.sol:WallkandaSale",
        "label": "beneficiary",
        "offset": 0,
        "slot": "153",
        "type": "t_address_payable"
      },
      {
        "astId": 6767,
        "contract": "contracts/Sales/WallkandaSale.sol:WallkandaSale",
        "label": "transferProxy",
        "offset": 0,
        "slot": "154",
        "type": "t_contract(ITransferProxy)5945"
      },
      {
        "astId": 6771,
        "contract": "contracts/Sales/WallkandaSale.sol:WallkandaSale",
        "label": "completed",
        "offset": 0,
        "slot": "155",
        "type": "t_mapping(t_bytes32,t_uint256)"
      }
    ],
    "types": {
      "t_address": {
        "encoding": "inplace",
        "label": "address",
        "numberOfBytes": "20"
      },
      "t_address_payable": {
        "encoding": "inplace",
        "label": "address payable",
        "numberOfBytes": "20"
      },
      "t_array(t_uint256)49_storage": {
        "base": "t_uint256",
        "encoding": "inplace",
        "label": "uint256[49]",
        "numberOfBytes": "1568"
      },
      "t_array(t_uint256)50_storage": {
        "base": "t_uint256",
        "encoding": "inplace",
        "label": "uint256[50]",
        "numberOfBytes": "1600"
      },
      "t_bool": {
        "encoding": "inplace",
        "label": "bool",
        "numberOfBytes": "1"
      },
      "t_bytes32": {
        "encoding": "inplace",
        "label": "bytes32",
        "numberOfBytes": "32"
      },
      "t_contract(ITransferProxy)5945": {
        "encoding": "inplace",
        "label": "contract ITransferProxy",
        "numberOfBytes": "20"
      },
      "t_mapping(t_bytes32,t_uint256)": {
        "encoding": "mapping",
        "key": "t_bytes32",
        "label": "mapping(bytes32 => uint256)",
        "numberOfBytes": "32",
        "value": "t_uint256"
      },
      "t_uint256": {
        "encoding": "inplace",
        "label": "uint256",
        "numberOfBytes": "32"
      }
    }
  }
}