{
  "address": "0xDA853275c39Ee766b1caD3b9DAc31b9E4af9A37c",
  "abi": [
    {
      "inputs": [],
      "stateMutability": "nonpayable",
      "type": "constructor"
    },
    {
      "anonymous": false,
      "inputs": [
        {
          "indexed": true,
          "internalType": "address",
          "name": "operator",
          "type": "address"
        }
      ],
      "name": "OperatorAdded",
      "type": "event"
    },
    {
      "anonymous": false,
      "inputs": [
        {
          "indexed": true,
          "internalType": "address",
          "name": "previousOwner",
          "type": "address"
        },
        {
          "indexed": true,
          "internalType": "address",
          "name": "newOwner",
          "type": "address"
        }
      ],
      "name": "OwnershipTransferred",
      "type": "event"
    },
    {
      "inputs": [
        {
          "internalType": "address[]",
          "name": "operators",
          "type": "address[]"
        }
      ],
      "name": "addOperators",
      "outputs": [],
      "stateMutability": "nonpayable",
      "type": "function"
    },
    {
      "inputs": [
        {
          "internalType": "address",
          "name": "token",
          "type": "address"
        },
        {
          "internalType": "address",
          "name": "from",
          "type": "address"
        },
        {
          "internalType": "address",
          "name": "to",
          "type": "address"
        },
        {
          "internalType": "uint256",
          "name": "tokenId",
          "type": "uint256"
        },
        {
          "internalType": "uint256",
          "name": "amount",
          "type": "uint256"
        },
        {
          "internalType": "bytes",
          "name": "data",
          "type": "bytes"
        }
      ],
      "name": "erc1155SafeTransferFrom",
      "outputs": [],
      "stateMutability": "nonpayable",
      "type": "function"
    },
    {
      "inputs": [
        {
          "internalType": "address",
          "name": "token",
          "type": "address"
        },
        {
          "internalType": "address",
          "name": "from",
          "type": "address"
        },
        {
          "internalType": "address",
          "name": "to",
          "type": "address"
        },
        {
          "internalType": "uint256",
          "name": "tokenId",
          "type": "uint256"
        },
        {
          "internalType": "bytes",
          "name": "data",
          "type": "bytes"
        }
      ],
      "name": "erc721SafeTransferFrom",
      "outputs": [],
      "stateMutability": "nonpayable",
      "type": "function"
    },
    {
      "inputs": [
        {
          "internalType": "address",
          "name": "address_",
          "type": "address"
        }
      ],
      "name": "isOperator",
      "outputs": [
        {
          "internalType": "bool",
          "name": "",
          "type": "bool"
        }
      ],
      "stateMutability": "view",
      "type": "function"
    },
    {
      "inputs": [],
      "name": "owner",
      "outputs": [
        {
          "internalType": "address",
          "name": "",
          "type": "address"
        }
      ],
      "stateMutability": "view",
      "type": "function"
    },
    {
      "inputs": [
        {
          "internalType": "address[]",
          "name": "operators",
          "type": "address[]"
        }
      ],
      "name": "removeOperators",
      "outputs": [],
      "stateMutability": "nonpayable",
      "type": "function"
    },
    {
      "inputs": [],
      "name": "renounceOwnership",
      "outputs": [],
      "stateMutability": "nonpayable",
      "type": "function"
    },
    {
      "inputs": [
        {
          "internalType": "address",
          "name": "newOwner",
          "type": "address"
        }
      ],
      "name": "transferOwnership",
      "outputs": [],
      "stateMutability": "nonpayable",
      "type": "function"
    }
  ],
  "transactionHash": "0x63d2849f20eeb8066ffc6fe36c69adf94d4ba5a88b1319e11fdb00398625b531",
  "args": [],
  "solcInputHash": "92cf957fb0df6f2c4e1eb5fd938bc7f1",
  "bytecode": "0x60806040523480156200001157600080fd5b506200001c62000022565b620002c8565b600054610100900460ff16806200003c575060005460ff16155b620000645760405162461bcd60e51b81526004016200005b906200027a565b60405180910390fd5b600054610100900460ff1615801562000090576000805460ff1961ff0019909116610100171660011790555b6200009a620000b0565b8015620000ad576000805461ff00191690555b50565b600054610100900460ff1680620000ca575060005460ff16155b620000e95760405162461bcd60e51b81526004016200005b906200027a565b600054610100900460ff1615801562000115576000805460ff1961ff0019909116610100171660011790555b6200011f62000129565b6200009a620001a2565b600054610100900460ff168062000143575060005460ff16155b620001625760405162461bcd60e51b81526004016200005b906200027a565b600054610100900460ff161580156200009a576000805460ff1961ff0019909116610100171660011790558015620000ad576000805461ff001916905550565b600054610100900460ff1680620001bc575060005460ff16155b620001db5760405162461bcd60e51b81526004016200005b906200027a565b600054610100900460ff1615801562000207576000805460ff1961ff0019909116610100171660011790555b60006200021362000276565b603380546001600160a01b0319166001600160a01b038316908117909155604051919250906000907f8be0079c531659141344cd1fd0a4f28419497f9722a3daafe3b4186f6b6457e0908290a3508015620000ad576000805461ff001916905550565b3390565b6020808252602e908201527f496e697469616c697a61626c653a20636f6e747261637420697320616c72656160408201526d191e481a5b9a5d1a585b1a5e995960921b606082015260800190565b6109ae80620002d86000396000f3fe608060405234801561001057600080fd5b50600436106100885760003560e01c806395def2a21161005b57806395def2a2146100e8578063a07aea1c146100fb578063d365a3771461010e578063f2fde38b1461012157610088565b8063488b0f7d1461008d5780636d70f7ae146100a2578063715018a6146100cb5780638da5cb5b146100d3575b600080fd5b6100a061009b366004610638565b610134565b005b6100b56100b0366004610617565b6101d0565b6040516100c2919061086f565b60405180910390f35b6100a06101f7565b6100db610280565b6040516100c291906107d5565b6100a06100f63660046106b5565b61028f565b6100a061010936600461073c565b610325565b6100a061011c36600461073c565b6103c3565b6100a061012f366004610617565b610482565b61013d336101d0565b6101625760405162461bcd60e51b8152600401610159906108f0565b60405180910390fd5b604051635c46a7ef60e11b81526001600160a01b0387169063b88d4fde9061019690889088908890889088906004016107e9565b600060405180830381600087803b1580156101b057600080fd5b505af11580156101c4573d6000803e3d6000fd5b50505050505050505050565b6001600160a01b03811660009081526065602052604090205460ff1615156001145b919050565b6101ff610543565b6001600160a01b0316610210610280565b6001600160a01b0316146102365760405162461bcd60e51b81526004016101599061091c565b6033546040516000916001600160a01b0316907f8be0079c531659141344cd1fd0a4f28419497f9722a3daafe3b4186f6b6457e0908390a3603380546001600160a01b0319169055565b6033546001600160a01b031690565b610298336101d0565b6102b45760405162461bcd60e51b8152600401610159906108f0565b604051637921219560e11b81526001600160a01b0388169063f242432a906102ea90899089908990899089908990600401610828565b600060405180830381600087803b15801561030457600080fd5b505af1158015610318573d6000803e3d6000fd5b5050505050505050505050565b61032d610543565b6001600160a01b031661033e610280565b6001600160a01b0316146103645760405162461bcd60e51b81526004016101599061091c565b60005b818110156103be576103ac83838381811061039257634e487b7160e01b600052603260045260246000fd5b90506020020160208101906103a79190610617565b610547565b806103b681610951565b915050610367565b505050565b6103cb610543565b6001600160a01b03166103dc610280565b6001600160a01b0316146104025760405162461bcd60e51b81526004016101599061091c565b60005b818110156103be5760006065600085858581811061043357634e487b7160e01b600052603260045260246000fd5b90506020020160208101906104489190610617565b6001600160a01b031681526020810191909152604001600020805460ff19169115159190911790558061047a81610951565b915050610405565b61048a610543565b6001600160a01b031661049b610280565b6001600160a01b0316146104c15760405162461bcd60e51b81526004016101599061091c565b6001600160a01b0381166104e75760405162461bcd60e51b8152600401610159906108aa565b6033546040516001600160a01b038084169216907f8be0079c531659141344cd1fd0a4f28419497f9722a3daafe3b4186f6b6457e090600090a3603380546001600160a01b0319166001600160a01b0392909216919091179055565b3390565b6001600160a01b03811661056d5760405162461bcd60e51b81526004016101599061087a565b6001600160a01b038116600081815260656020526040808220805460ff19166001179055517fac6fa858e9350a46cec16539926e0fde25b7629f84b5a72bffaae4df888ae86d9190a250565b80356001600160a01b03811681146101f257600080fd5b60008083601f8401126105e1578182fd5b50813567ffffffffffffffff8111156105f8578182fd5b60208301915083602082850101111561061057600080fd5b9250929050565b600060208284031215610628578081fd5b610631826105b9565b9392505050565b60008060008060008060a08789031215610650578182fd5b610659876105b9565b9550610667602088016105b9565b9450610675604088016105b9565b935060608701359250608087013567ffffffffffffffff811115610697578283fd5b6106a389828a016105d0565b979a9699509497509295939492505050565b600080600080600080600060c0888a0312156106cf578081fd5b6106d8886105b9565b96506106e6602089016105b9565b95506106f4604089016105b9565b9450606088013593506080880135925060a088013567ffffffffffffffff81111561071d578182fd5b6107298a828b016105d0565b989b979a50959850939692959293505050565b6000806020838503121561074e578182fd5b823567ffffffffffffffff80821115610765578384fd5b818501915085601f830112610778578384fd5b813581811115610786578485fd5b8660208083028501011115610799578485fd5b60209290920196919550909350505050565b60008284528282602086013780602084860101526020601f19601f85011685010190509392505050565b6001600160a01b0391909116815260200190565b6001600160a01b038681168252851660208201526040810184905260806060820181905260009061081d90830184866107ab565b979650505050505050565b6001600160a01b03878116825286166020820152604081018590526060810184905260a06080820181905260009061086390830184866107ab565b98975050505050505050565b901515815260200190565b6020808252601690820152752937b6329d1034b73b30b634b21027b832b930ba37b960511b604082015260600190565b60208082526026908201527f4f776e61626c653a206e6577206f776e657220697320746865207a65726f206160408201526564647265737360d01b606082015260800190565b6020808252601290820152712937b6329d103737ba1027b832b930ba37b960711b604082015260600190565b6020808252818101527f4f776e61626c653a2063616c6c6572206973206e6f7420746865206f776e6572604082015260600190565b600060001982141561097157634e487b7160e01b81526011600452602481fd5b506001019056fea264697066735822122029e4499dd94d7fbcdf18cb54e584c451e4a2aa963ba20480ddee7e2483134df864736f6c63430008000033",
  "devdoc": {
    "kind": "dev",
    "methods": {
      "owner()": {
        "details": "Returns the address of the current owner."
      },
      "renounceOwnership()": {
        "details": "Leaves the contract without owner. It will not be possible to call `onlyOwner` functions anymore. Can only be called by the current owner. NOTE: Renouncing ownership will leave the contract without an owner, thereby removing any functionality that is only available to the owner."
      },
      "transferOwnership(address)": {
        "details": "Transfers ownership of the contract to a new account (`newOwner`). Can only be called by the current owner."
      }
    },
    "version": 1
  },
  "userdoc": {
    "kind": "user",
    "methods": {},
    "version": 1
  },
  "storageLayout": {
    "storage": [
      {
        "astId": 136,
        "contract": "contracts/Proxys/Transfer/TransferProxy.sol:TransferProxy",
        "label": "_initialized",
        "offset": 0,
        "slot": "0",
        "type": "t_bool"
      },
      {
        "astId": 139,
        "contract": "contracts/Proxys/Transfer/TransferProxy.sol:TransferProxy",
        "label": "_initializing",
        "offset": 1,
        "slot": "0",
        "type": "t_bool"
      },
      {
        "astId": 1873,
        "contract": "contracts/Proxys/Transfer/TransferProxy.sol:TransferProxy",
        "label": "__gap",
        "offset": 0,
        "slot": "1",
        "type": "t_array(t_uint256)50_storage"
      },
      {
        "astId": 10,
        "contract": "contracts/Proxys/Transfer/TransferProxy.sol:TransferProxy",
        "label": "_owner",
        "offset": 0,
        "slot": "51",
        "type": "t_address"
      },
      {
        "astId": 129,
        "contract": "contracts/Proxys/Transfer/TransferProxy.sol:TransferProxy",
        "label": "__gap",
        "offset": 0,
        "slot": "52",
        "type": "t_array(t_uint256)49_storage"
      },
      {
        "astId": 5111,
        "contract": "contracts/Proxys/Transfer/TransferProxy.sol:TransferProxy",
        "label": "_operators",
        "offset": 0,
        "slot": "101",
        "type": "t_mapping(t_address,t_bool)"
      }
    ],
    "types": {
      "t_address": {
        "encoding": "inplace",
        "label": "address",
        "numberOfBytes": "20"
      },
      "t_array(t_uint256)49_storage": {
        "base": "t_uint256",
        "encoding": "inplace",
        "label": "uint256[49]",
        "numberOfBytes": "1568"
      },
      "t_array(t_uint256)50_storage": {
        "base": "t_uint256",
        "encoding": "inplace",
        "label": "uint256[50]",
        "numberOfBytes": "1600"
      },
      "t_bool": {
        "encoding": "inplace",
        "label": "bool",
        "numberOfBytes": "1"
      },
      "t_mapping(t_address,t_bool)": {
        "encoding": "mapping",
        "key": "t_address",
        "label": "mapping(address => bool)",
        "numberOfBytes": "32",
        "value": "t_bool"
      },
      "t_uint256": {
        "encoding": "inplace",
        "label": "uint256",
        "numberOfBytes": "32"
      }
    }
  }
}